{
	"PLDG Sample Problem - Voting Smart Contract.sol": {
		"Voting": {
			"abi": [
				{
					"inputs": [
						{
							"internalType": "string",
							"name": "_title",
							"type": "string"
						},
						{
							"internalType": "string[]",
							"name": "_options",
							"type": "string[]"
						}
					],
					"name": "createPoll",
					"outputs": [],
					"stateMutability": "nonpayable",
					"type": "function"
				},
				{
					"inputs": [
						{
							"internalType": "uint256",
							"name": "_pollId",
							"type": "uint256"
						}
					],
					"name": "getResults",
					"outputs": [
						{
							"internalType": "string[]",
							"name": "",
							"type": "string[]"
						},
						{
							"internalType": "uint256[]",
							"name": "",
							"type": "uint256[]"
						}
					],
					"stateMutability": "view",
					"type": "function"
				},
				{
					"inputs": [],
					"name": "pollCount",
					"outputs": [
						{
							"internalType": "uint256",
							"name": "",
							"type": "uint256"
						}
					],
					"stateMutability": "view",
					"type": "function"
				},
				{
					"inputs": [
						{
							"internalType": "uint256",
							"name": "",
							"type": "uint256"
						}
					],
					"name": "polls",
					"outputs": [
						{
							"internalType": "string",
							"name": "title",
							"type": "string"
						},
						{
							"internalType": "bool",
							"name": "isActive",
							"type": "bool"
						}
					],
					"stateMutability": "view",
					"type": "function"
				},
				{
					"inputs": [
						{
							"internalType": "uint256",
							"name": "_pollId",
							"type": "uint256"
						},
						{
							"internalType": "string",
							"name": "_option",
							"type": "string"
						}
					],
					"name": "vote",
					"outputs": [],
					"stateMutability": "nonpayable",
					"type": "function"
				}
			],
			"devdoc": {
				"kind": "dev",
				"methods": {},
				"version": 1
			},
			"evm": {
				"assembly": "    /* \"PLDG Sample Problem - Voting Smart Contract.sol\":60:1176  contract Voting {... */\n  mstore(0x40, 0x80)\n  callvalue\n  dup1\n  iszero\n  tag_1\n  jumpi\n  0x00\n  dup1\n  revert\ntag_1:\n  pop\n  dataSize(sub_0)\n  dup1\n  dataOffset(sub_0)\n  0x00\n  codecopy\n  0x00\n  return\nstop\n\nsub_0: assembly {\n        /* \"PLDG Sample Problem - Voting Smart Contract.sol\":60:1176  contract Voting {... */\n      mstore(0x40, 0x80)\n      callvalue\n      dup1\n      iszero\n      tag_1\n      jumpi\n      0x00\n      dup1\n      revert\n    tag_1:\n      pop\n      jumpi(tag_2, lt(calldatasize, 0x04))\n      shr(0xe0, calldataload(0x00))\n      dup1\n      0x24108475\n      eq\n      tag_3\n      jumpi\n      dup1\n      0x7e3d71c3\n      eq\n      tag_4\n      jumpi\n      dup1\n      0x81a60c0d\n      eq\n      tag_5\n      jumpi\n      dup1\n      0x9207891d\n      eq\n      tag_6\n      jumpi\n      dup1\n      0xac2f0074\n      eq\n      tag_7\n      jumpi\n    tag_2:\n      0x00\n      dup1\n      revert\n        /* \"PLDG Sample Problem - Voting Smart Contract.sol\":552:728  function vote(uint256 _pollId, string memory _option) public {... */\n    tag_3:\n      tag_8\n      0x04\n      dup1\n      calldatasize\n      sub\n      dup2\n      add\n      swap1\n      tag_9\n      swap2\n      swap1\n      tag_10\n      jump\t// in\n    tag_9:\n      tag_11\n      jump\t// in\n    tag_8:\n      stop\n        /* \"PLDG Sample Problem - Voting Smart Contract.sol\":305:544  function createPoll(string memory _title, string[] memory _options) public {... */\n    tag_4:\n      tag_12\n      0x04\n      dup1\n      calldatasize\n      sub\n      dup2\n      add\n      swap1\n      tag_13\n      swap2\n      swap1\n      tag_14\n      jump\t// in\n    tag_13:\n      tag_15\n      jump\t// in\n    tag_12:\n      stop\n        /* \"PLDG Sample Problem - Voting Smart Contract.sol\":736:1173  function getResults(uint256 _pollId) public view returns (string[] memory, uint256[] memory) {... */\n    tag_5:\n      tag_16\n      0x04\n      dup1\n      calldatasize\n      sub\n      dup2\n      add\n      swap1\n      tag_17\n      swap2\n      swap1\n      tag_18\n      jump\t// in\n    tag_17:\n      tag_19\n      jump\t// in\n    tag_16:\n      mload(0x40)\n      tag_20\n      swap3\n      swap2\n      swap1\n      tag_21\n      jump\t// in\n    tag_20:\n      mload(0x40)\n      dup1\n      swap2\n      sub\n      swap1\n      return\n        /* \"PLDG Sample Problem - Voting Smart Contract.sol\":272:296  uint256 public pollCount */\n    tag_6:\n      tag_22\n      tag_23\n      jump\t// in\n    tag_22:\n      mload(0x40)\n      tag_24\n      swap2\n      swap1\n      tag_25\n      jump\t// in\n    tag_24:\n      mload(0x40)\n      dup1\n      swap2\n      sub\n      swap1\n      return\n        /* \"PLDG Sample Problem - Voting Smart Contract.sol\":228:265  mapping(uint256 => Poll) public polls */\n    tag_7:\n      tag_26\n      0x04\n      dup1\n      calldatasize\n      sub\n      dup2\n      add\n      swap1\n      tag_27\n      swap2\n      swap1\n      tag_18\n      jump\t// in\n    tag_27:\n      tag_28\n      jump\t// in\n    tag_26:\n      mload(0x40)\n      tag_29\n      swap3\n      swap2\n      swap1\n      tag_30\n      jump\t// in\n    tag_29:\n      mload(0x40)\n      dup1\n      swap2\n      sub\n      swap1\n      return\n        /* \"PLDG Sample Problem - Voting Smart Contract.sol\":552:728  function vote(uint256 _pollId, string memory _option) public {... */\n    tag_11:\n        /* \"PLDG Sample Problem - Voting Smart Contract.sol\":632:637  polls */\n      0x00\n        /* \"PLDG Sample Problem - Voting Smart Contract.sol\":632:646  polls[_pollId] */\n      dup1\n        /* \"PLDG Sample Problem - Voting Smart Contract.sol\":638:645  _pollId */\n      dup4\n        /* \"PLDG Sample Problem - Voting Smart Contract.sol\":632:646  polls[_pollId] */\n      dup2\n      mstore\n      0x20\n      add\n      swap1\n      dup2\n      mstore\n      0x20\n      add\n      0x00\n      keccak256\n        /* \"PLDG Sample Problem - Voting Smart Contract.sol\":632:655  polls[_pollId].isActive */\n      0x03\n      add\n      0x00\n      swap1\n      sload\n      swap1\n      0x0100\n      exp\n      swap1\n      div\n      0xff\n      and\n        /* \"PLDG Sample Problem - Voting Smart Contract.sol\":624:678  require(polls[_pollId].isActive, \"Poll is not active\") */\n      tag_32\n      jumpi\n      mload(0x40)\n      0x08c379a000000000000000000000000000000000000000000000000000000000\n      dup2\n      mstore\n      0x04\n      add\n      tag_33\n      swap1\n      tag_34\n      jump\t// in\n    tag_33:\n      mload(0x40)\n      dup1\n      swap2\n      sub\n      swap1\n      revert\n    tag_32:\n        /* \"PLDG Sample Problem - Voting Smart Contract.sol\":689:694  polls */\n      0x00\n        /* \"PLDG Sample Problem - Voting Smart Contract.sol\":689:703  polls[_pollId] */\n      dup1\n        /* \"PLDG Sample Problem - Voting Smart Contract.sol\":695:702  _pollId */\n      dup4\n        /* \"PLDG Sample Problem - Voting Smart Contract.sol\":689:703  polls[_pollId] */\n      dup2\n      mstore\n      0x20\n      add\n      swap1\n      dup2\n      mstore\n      0x20\n      add\n      0x00\n      keccak256\n        /* \"PLDG Sample Problem - Voting Smart Contract.sol\":689:709  polls[_pollId].votes */\n      0x02\n      add\n        /* \"PLDG Sample Problem - Voting Smart Contract.sol\":710:717  _option */\n      dup2\n        /* \"PLDG Sample Problem - Voting Smart Contract.sol\":689:718  polls[_pollId].votes[_option] */\n      mload(0x40)\n      tag_35\n      swap2\n      swap1\n      tag_36\n      jump\t// in\n    tag_35:\n      swap1\n      dup2\n      mstore\n      0x20\n      add\n      mload(0x40)\n      dup1\n      swap2\n      sub\n      swap1\n      keccak256\n      0x00\n        /* \"PLDG Sample Problem - Voting Smart Contract.sol\":689:720  polls[_pollId].votes[_option]++ */\n      dup2\n      sload\n      dup1\n      swap3\n      swap2\n      swap1\n      tag_37\n      swap1\n      tag_38\n      jump\t// in\n    tag_37:\n      swap2\n      swap1\n      pop\n      sstore\n      pop\n        /* \"PLDG Sample Problem - Voting Smart Contract.sol\":552:728  function vote(uint256 _pollId, string memory _option) public {... */\n      pop\n      pop\n      jump\t// out\n        /* \"PLDG Sample Problem - Voting Smart Contract.sol\":305:544  function createPoll(string memory _title, string[] memory _options) public {... */\n    tag_15:\n        /* \"PLDG Sample Problem - Voting Smart Contract.sol\":391:411  Poll storage newPoll */\n      0x00\n        /* \"PLDG Sample Problem - Voting Smart Contract.sol\":414:419  polls */\n      dup1\n        /* \"PLDG Sample Problem - Voting Smart Contract.sol\":414:432  polls[pollCount++] */\n      0x00\n        /* \"PLDG Sample Problem - Voting Smart Contract.sol\":420:429  pollCount */\n      0x01\n      0x00\n        /* \"PLDG Sample Problem - Voting Smart Contract.sol\":420:431  pollCount++ */\n      dup2\n      sload\n      dup1\n      swap3\n      swap2\n      swap1\n      tag_40\n      swap1\n      tag_38\n      jump\t// in\n    tag_40:\n      swap2\n      swap1\n      pop\n      sstore\n        /* \"PLDG Sample Problem - Voting Smart Contract.sol\":414:432  polls[pollCount++] */\n      dup2\n      mstore\n      0x20\n      add\n      swap1\n      dup2\n      mstore\n      0x20\n      add\n      0x00\n      keccak256\n        /* \"PLDG Sample Problem - Voting Smart Contract.sol\":391:432  Poll storage newPoll = polls[pollCount++] */\n      swap1\n      pop\n        /* \"PLDG Sample Problem - Voting Smart Contract.sol\":459:465  _title */\n      dup3\n        /* \"PLDG Sample Problem - Voting Smart Contract.sol\":443:450  newPoll */\n      dup2\n        /* \"PLDG Sample Problem - Voting Smart Contract.sol\":443:456  newPoll.title */\n      0x00\n      add\n        /* \"PLDG Sample Problem - Voting Smart Contract.sol\":443:465  newPoll.title = _title */\n      swap1\n      dup2\n      tag_41\n      swap2\n      swap1\n      tag_42\n      jump\t// in\n    tag_41:\n      pop\n        /* \"PLDG Sample Problem - Voting Smart Contract.sol\":494:502  _options */\n      dup2\n        /* \"PLDG Sample Problem - Voting Smart Contract.sol\":476:483  newPoll */\n      dup2\n        /* \"PLDG Sample Problem - Voting Smart Contract.sol\":476:491  newPoll.options */\n      0x01\n      add\n        /* \"PLDG Sample Problem - Voting Smart Contract.sol\":476:502  newPoll.options = _options */\n      swap1\n      dup1\n      mload\n      swap1\n      0x20\n      add\n      swap1\n      tag_43\n      swap3\n      swap2\n      swap1\n      tag_44\n      jump\t// in\n    tag_43:\n      pop\n        /* \"PLDG Sample Problem - Voting Smart Contract.sol\":532:536  true */\n      0x01\n        /* \"PLDG Sample Problem - Voting Smart Contract.sol\":513:520  newPoll */\n      dup2\n        /* \"PLDG Sample Problem - Voting Smart Contract.sol\":513:529  newPoll.isActive */\n      0x03\n      add\n      0x00\n        /* \"PLDG Sample Problem - Voting Smart Contract.sol\":513:536  newPoll.isActive = true */\n      0x0100\n      exp\n      dup2\n      sload\n      dup2\n      0xff\n      mul\n      not\n      and\n      swap1\n      dup4\n      iszero\n      iszero\n      mul\n      or\n      swap1\n      sstore\n      pop\n        /* \"PLDG Sample Problem - Voting Smart Contract.sol\":380:544  {... */\n      pop\n        /* \"PLDG Sample Problem - Voting Smart Contract.sol\":305:544  function createPoll(string memory _title, string[] memory _options) public {... */\n      pop\n      pop\n      jump\t// out\n        /* \"PLDG Sample Problem - Voting Smart Contract.sol\":736:1173  function getResults(uint256 _pollId) public view returns (string[] memory, uint256[] memory) {... */\n    tag_19:\n        /* \"PLDG Sample Problem - Voting Smart Contract.sol\":794:809  string[] memory */\n      0x60\n        /* \"PLDG Sample Problem - Voting Smart Contract.sol\":811:827  uint256[] memory */\n      dup1\n        /* \"PLDG Sample Problem - Voting Smart Contract.sol\":840:859  uint256 optionCount */\n      0x00\n        /* \"PLDG Sample Problem - Voting Smart Contract.sol\":862:867  polls */\n      dup1\n        /* \"PLDG Sample Problem - Voting Smart Contract.sol\":862:876  polls[_pollId] */\n      0x00\n        /* \"PLDG Sample Problem - Voting Smart Contract.sol\":868:875  _pollId */\n      dup6\n        /* \"PLDG Sample Problem - Voting Smart Contract.sol\":862:876  polls[_pollId] */\n      dup2\n      mstore\n      0x20\n      add\n      swap1\n      dup2\n      mstore\n      0x20\n      add\n      0x00\n      keccak256\n        /* \"PLDG Sample Problem - Voting Smart Contract.sol\":862:884  polls[_pollId].options */\n      0x01\n      add\n        /* \"PLDG Sample Problem - Voting Smart Contract.sol\":862:891  polls[_pollId].options.length */\n      dup1\n      sload\n      swap1\n      pop\n        /* \"PLDG Sample Problem - Voting Smart Contract.sol\":840:891  uint256 optionCount = polls[_pollId].options.length */\n      swap1\n      pop\n        /* \"PLDG Sample Problem - Voting Smart Contract.sol\":902:926  uint256[] memory results */\n      0x00\n        /* \"PLDG Sample Problem - Voting Smart Contract.sol\":943:954  optionCount */\n      dup2\n        /* \"PLDG Sample Problem - Voting Smart Contract.sol\":929:955  new uint256[](optionCount) */\n      0xffffffffffffffff\n      dup2\n      gt\n      iszero\n      tag_46\n      jumpi\n      tag_47\n      tag_48\n      jump\t// in\n    tag_47:\n    tag_46:\n      mload(0x40)\n      swap1\n      dup1\n      dup3\n      mstore\n      dup1\n      0x20\n      mul\n      0x20\n      add\n      dup3\n      add\n      0x40\n      mstore\n      dup1\n      iszero\n      tag_49\n      jumpi\n      dup2\n      0x20\n      add\n      0x20\n      dup3\n      mul\n      dup1\n      calldatasize\n      dup4\n      calldatacopy\n      dup1\n      dup3\n      add\n      swap2\n      pop\n      pop\n      swap1\n      pop\n    tag_49:\n      pop\n        /* \"PLDG Sample Problem - Voting Smart Contract.sol\":902:955  uint256[] memory results = new uint256[](optionCount) */\n      swap1\n      pop\n        /* \"PLDG Sample Problem - Voting Smart Contract.sol\":981:990  uint256 i */\n      0x00\n        /* \"PLDG Sample Problem - Voting Smart Contract.sol\":976:1105  for (uint256 i = 0; i < optionCount; i++) {... */\n    tag_50:\n        /* \"PLDG Sample Problem - Voting Smart Contract.sol\":1000:1011  optionCount */\n      dup3\n        /* \"PLDG Sample Problem - Voting Smart Contract.sol\":996:997  i */\n      dup2\n        /* \"PLDG Sample Problem - Voting Smart Contract.sol\":996:1011  i < optionCount */\n      lt\n        /* \"PLDG Sample Problem - Voting Smart Contract.sol\":976:1105  for (uint256 i = 0; i < optionCount; i++) {... */\n      iszero\n      tag_51\n      jumpi\n        /* \"PLDG Sample Problem - Voting Smart Contract.sol\":1046:1051  polls */\n      0x00\n        /* \"PLDG Sample Problem - Voting Smart Contract.sol\":1046:1060  polls[_pollId] */\n      dup1\n        /* \"PLDG Sample Problem - Voting Smart Contract.sol\":1052:1059  _pollId */\n      dup8\n        /* \"PLDG Sample Problem - Voting Smart Contract.sol\":1046:1060  polls[_pollId] */\n      dup2\n      mstore\n      0x20\n      add\n      swap1\n      dup2\n      mstore\n      0x20\n      add\n      0x00\n      keccak256\n        /* \"PLDG Sample Problem - Voting Smart Contract.sol\":1046:1066  polls[_pollId].votes */\n      0x02\n      add\n        /* \"PLDG Sample Problem - Voting Smart Contract.sol\":1067:1072  polls */\n      0x00\n        /* \"PLDG Sample Problem - Voting Smart Contract.sol\":1067:1081  polls[_pollId] */\n      dup1\n        /* \"PLDG Sample Problem - Voting Smart Contract.sol\":1073:1080  _pollId */\n      dup9\n        /* \"PLDG Sample Problem - Voting Smart Contract.sol\":1067:1081  polls[_pollId] */\n      dup2\n      mstore\n      0x20\n      add\n      swap1\n      dup2\n      mstore\n      0x20\n      add\n      0x00\n      keccak256\n        /* \"PLDG Sample Problem - Voting Smart Contract.sol\":1067:1089  polls[_pollId].options */\n      0x01\n      add\n        /* \"PLDG Sample Problem - Voting Smart Contract.sol\":1090:1091  i */\n      dup3\n        /* \"PLDG Sample Problem - Voting Smart Contract.sol\":1067:1092  polls[_pollId].options[i] */\n      dup2\n      sload\n      dup2\n      lt\n      tag_53\n      jumpi\n      tag_54\n      tag_55\n      jump\t// in\n    tag_54:\n    tag_53:\n      swap1\n      0x00\n      mstore\n      keccak256(0x00, 0x20)\n      add\n        /* \"PLDG Sample Problem - Voting Smart Contract.sol\":1046:1093  polls[_pollId].votes[polls[_pollId].options[i]] */\n      mload(0x40)\n      tag_57\n      swap2\n      swap1\n      tag_58\n      jump\t// in\n    tag_57:\n      swap1\n      dup2\n      mstore\n      0x20\n      add\n      mload(0x40)\n      dup1\n      swap2\n      sub\n      swap1\n      keccak256\n      sload\n        /* \"PLDG Sample Problem - Voting Smart Contract.sol\":1033:1040  results */\n      dup3\n        /* \"PLDG Sample Problem - Voting Smart Contract.sol\":1041:1042  i */\n      dup3\n        /* \"PLDG Sample Problem - Voting Smart Contract.sol\":1033:1043  results[i] */\n      dup2\n      mload\n      dup2\n      lt\n      tag_59\n      jumpi\n      tag_60\n      tag_55\n      jump\t// in\n    tag_60:\n    tag_59:\n      0x20\n      mul\n      0x20\n      add\n      add\n        /* \"PLDG Sample Problem - Voting Smart Contract.sol\":1033:1093  results[i] = polls[_pollId].votes[polls[_pollId].options[i]] */\n      dup2\n      dup2\n      mstore\n      pop\n      pop\n        /* \"PLDG Sample Problem - Voting Smart Contract.sol\":1013:1016  i++ */\n      dup1\n      dup1\n      0x01\n      add\n      swap2\n      pop\n      pop\n        /* \"PLDG Sample Problem - Voting Smart Contract.sol\":976:1105  for (uint256 i = 0; i < optionCount; i++) {... */\n      jump(tag_50)\n    tag_51:\n      pop\n        /* \"PLDG Sample Problem - Voting Smart Contract.sol\":1133:1138  polls */\n      0x00\n        /* \"PLDG Sample Problem - Voting Smart Contract.sol\":1133:1147  polls[_pollId] */\n      dup1\n        /* \"PLDG Sample Problem - Voting Smart Contract.sol\":1139:1146  _pollId */\n      dup7\n        /* \"PLDG Sample Problem - Voting Smart Contract.sol\":1133:1147  polls[_pollId] */\n      dup2\n      mstore\n      0x20\n      add\n      swap1\n      dup2\n      mstore\n      0x20\n      add\n      0x00\n      keccak256\n        /* \"PLDG Sample Problem - Voting Smart Contract.sol\":1133:1155  polls[_pollId].options */\n      0x01\n      add\n        /* \"PLDG Sample Problem - Voting Smart Contract.sol\":1157:1164  results */\n      dup2\n        /* \"PLDG Sample Problem - Voting Smart Contract.sol\":1125:1165  return (polls[_pollId].options, results) */\n      dup2\n      dup1\n      sload\n      dup1\n      0x20\n      mul\n      0x20\n      add\n      mload(0x40)\n      swap1\n      dup2\n      add\n      0x40\n      mstore\n      dup1\n      swap3\n      swap2\n      swap1\n      dup2\n      dup2\n      mstore\n      0x20\n      add\n      0x00\n      swap1\n    tag_61:\n      dup3\n      dup3\n      lt\n      iszero\n      tag_62\n      jumpi\n      dup4\n      dup3\n      swap1\n      0x00\n      mstore\n      keccak256(0x00, 0x20)\n      add\n      dup1\n      sload\n      tag_64\n      swap1\n      tag_65\n      jump\t// in\n    tag_64:\n      dup1\n      0x1f\n      add\n      0x20\n      dup1\n      swap2\n      div\n      mul\n      0x20\n      add\n      mload(0x40)\n      swap1\n      dup2\n      add\n      0x40\n      mstore\n      dup1\n      swap3\n      swap2\n      swap1\n      dup2\n      dup2\n      mstore\n      0x20\n      add\n      dup3\n      dup1\n      sload\n      tag_66\n      swap1\n      tag_65\n      jump\t// in\n    tag_66:\n      dup1\n      iszero\n      tag_67\n      jumpi\n      dup1\n      0x1f\n      lt\n      tag_68\n      jumpi\n      0x0100\n      dup1\n      dup4\n      sload\n      div\n      mul\n      dup4\n      mstore\n      swap2\n      0x20\n      add\n      swap2\n      jump(tag_67)\n    tag_68:\n      dup3\n      add\n      swap2\n      swap1\n      0x00\n      mstore\n      keccak256(0x00, 0x20)\n      swap1\n    tag_69:\n      dup2\n      sload\n      dup2\n      mstore\n      swap1\n      0x01\n      add\n      swap1\n      0x20\n      add\n      dup1\n      dup4\n      gt\n      tag_69\n      jumpi\n      dup3\n      swap1\n      sub\n      0x1f\n      and\n      dup3\n      add\n      swap2\n    tag_67:\n      pop\n      pop\n      pop\n      pop\n      pop\n      dup2\n      mstore\n      0x20\n      add\n      swap1\n      0x01\n      add\n      swap1\n      jump(tag_61)\n    tag_62:\n      pop\n      pop\n      pop\n      pop\n      swap2\n      pop\n      swap4\n      pop\n      swap4\n      pop\n      pop\n      pop\n        /* \"PLDG Sample Problem - Voting Smart Contract.sol\":736:1173  function getResults(uint256 _pollId) public view returns (string[] memory, uint256[] memory) {... */\n      swap2\n      pop\n      swap2\n      jump\t// out\n        /* \"PLDG Sample Problem - Voting Smart Contract.sol\":272:296  uint256 public pollCount */\n    tag_23:\n      sload(0x01)\n      dup2\n      jump\t// out\n        /* \"PLDG Sample Problem - Voting Smart Contract.sol\":228:265  mapping(uint256 => Poll) public polls */\n    tag_28:\n      mstore(0x20, 0x00)\n      dup1\n      0x00\n      mstore\n      keccak256(0x00, 0x40)\n      0x00\n      swap2\n      pop\n      swap1\n      pop\n      dup1\n      0x00\n      add\n      dup1\n      sload\n      tag_70\n      swap1\n      tag_65\n      jump\t// in\n    tag_70:\n      dup1\n      0x1f\n      add\n      0x20\n      dup1\n      swap2\n      div\n      mul\n      0x20\n      add\n      mload(0x40)\n      swap1\n      dup2\n      add\n      0x40\n      mstore\n      dup1\n      swap3\n      swap2\n      swap1\n      dup2\n      dup2\n      mstore\n      0x20\n      add\n      dup3\n      dup1\n      sload\n      tag_71\n      swap1\n      tag_65\n      jump\t// in\n    tag_71:\n      dup1\n      iszero\n      tag_72\n      jumpi\n      dup1\n      0x1f\n      lt\n      tag_73\n      jumpi\n      0x0100\n      dup1\n      dup4\n      sload\n      div\n      mul\n      dup4\n      mstore\n      swap2\n      0x20\n      add\n      swap2\n      jump(tag_72)\n    tag_73:\n      dup3\n      add\n      swap2\n      swap1\n      0x00\n      mstore\n      keccak256(0x00, 0x20)\n      swap1\n    tag_74:\n      dup2\n      sload\n      dup2\n      mstore\n      swap1\n      0x01\n      add\n      swap1\n      0x20\n      add\n      dup1\n      dup4\n      gt\n      tag_74\n      jumpi\n      dup3\n      swap1\n      sub\n      0x1f\n      and\n      dup3\n      add\n      swap2\n    tag_72:\n      pop\n      pop\n      pop\n      pop\n      pop\n      swap1\n      dup1\n      0x03\n      add\n      0x00\n      swap1\n      sload\n      swap1\n      0x0100\n      exp\n      swap1\n      div\n      0xff\n      and\n      swap1\n      pop\n      dup3\n      jump\t// out\n    tag_44:\n      dup3\n      dup1\n      sload\n      dup3\n      dup3\n      sstore\n      swap1\n      0x00\n      mstore\n      keccak256(0x00, 0x20)\n      swap1\n      dup2\n      add\n      swap3\n      dup3\n      iszero\n      tag_75\n      jumpi\n      swap2\n      0x20\n      mul\n      dup3\n      add\n    tag_76:\n      dup3\n      dup2\n      gt\n      iszero\n      tag_77\n      jumpi\n      dup3\n      mload\n      dup3\n      swap1\n      dup2\n      tag_78\n      swap2\n      swap1\n      tag_42\n      jump\t// in\n    tag_78:\n      pop\n      swap2\n      0x20\n      add\n      swap2\n      swap1\n      0x01\n      add\n      swap1\n      jump(tag_76)\n    tag_77:\n    tag_75:\n      pop\n      swap1\n      pop\n      tag_79\n      swap2\n      swap1\n      tag_80\n      jump\t// in\n    tag_79:\n      pop\n      swap1\n      jump\t// out\n    tag_80:\n    tag_81:\n      dup1\n      dup3\n      gt\n      iszero\n      tag_82\n      jumpi\n      0x00\n      dup2\n      dup2\n      tag_83\n      swap2\n      swap1\n      tag_84\n      jump\t// in\n    tag_83:\n      pop\n      0x01\n      add\n      jump(tag_81)\n    tag_82:\n      pop\n      swap1\n      jump\t// out\n    tag_84:\n      pop\n      dup1\n      sload\n      tag_85\n      swap1\n      tag_65\n      jump\t// in\n    tag_85:\n      0x00\n      dup3\n      sstore\n      dup1\n      0x1f\n      lt\n      tag_87\n      jumpi\n      pop\n      jump(tag_86)\n    tag_87:\n      0x1f\n      add\n      0x20\n      swap1\n      div\n      swap1\n      0x00\n      mstore\n      keccak256(0x00, 0x20)\n      swap1\n      dup2\n      add\n      swap1\n      tag_88\n      swap2\n      swap1\n      tag_89\n      jump\t// in\n    tag_88:\n    tag_86:\n      pop\n      jump\t// out\n    tag_89:\n    tag_90:\n      dup1\n      dup3\n      gt\n      iszero\n      tag_91\n      jumpi\n      0x00\n      dup2\n      0x00\n      swap1\n      sstore\n      pop\n      0x01\n      add\n      jump(tag_90)\n    tag_91:\n      pop\n      swap1\n      jump\t// out\n        /* \"#utility.yul\":7:82   */\n    tag_92:\n        /* \"#utility.yul\":40:46   */\n      0x00\n        /* \"#utility.yul\":73:75   */\n      0x40\n        /* \"#utility.yul\":67:76   */\n      mload\n        /* \"#utility.yul\":57:76   */\n      swap1\n      pop\n        /* \"#utility.yul\":7:82   */\n      swap1\n      jump\t// out\n        /* \"#utility.yul\":88:205   */\n    tag_93:\n        /* \"#utility.yul\":197:198   */\n      0x00\n        /* \"#utility.yul\":194:195   */\n      dup1\n        /* \"#utility.yul\":187:199   */\n      revert\n        /* \"#utility.yul\":211:328   */\n    tag_94:\n        /* \"#utility.yul\":320:321   */\n      0x00\n        /* \"#utility.yul\":317:318   */\n      dup1\n        /* \"#utility.yul\":310:322   */\n      revert\n        /* \"#utility.yul\":334:411   */\n    tag_95:\n        /* \"#utility.yul\":371:378   */\n      0x00\n        /* \"#utility.yul\":400:405   */\n      dup2\n        /* \"#utility.yul\":389:405   */\n      swap1\n      pop\n        /* \"#utility.yul\":334:411   */\n      swap2\n      swap1\n      pop\n      jump\t// out\n        /* \"#utility.yul\":417:539   */\n    tag_96:\n        /* \"#utility.yul\":490:514   */\n      tag_161\n        /* \"#utility.yul\":508:513   */\n      dup2\n        /* \"#utility.yul\":490:514   */\n      tag_95\n      jump\t// in\n    tag_161:\n        /* \"#utility.yul\":483:488   */\n      dup2\n        /* \"#utility.yul\":480:515   */\n      eq\n        /* \"#utility.yul\":470:533   */\n      tag_162\n      jumpi\n        /* \"#utility.yul\":529:530   */\n      0x00\n        /* \"#utility.yul\":526:527   */\n      dup1\n        /* \"#utility.yul\":519:531   */\n      revert\n        /* \"#utility.yul\":470:533   */\n    tag_162:\n        /* \"#utility.yul\":417:539   */\n      pop\n      jump\t// out\n        /* \"#utility.yul\":545:684   */\n    tag_97:\n        /* \"#utility.yul\":591:596   */\n      0x00\n        /* \"#utility.yul\":629:635   */\n      dup2\n        /* \"#utility.yul\":616:636   */\n      calldataload\n        /* \"#utility.yul\":607:636   */\n      swap1\n      pop\n        /* \"#utility.yul\":645:678   */\n      tag_164\n        /* \"#utility.yul\":672:677   */\n      dup2\n        /* \"#utility.yul\":645:678   */\n      tag_96\n      jump\t// in\n    tag_164:\n        /* \"#utility.yul\":545:684   */\n      swap3\n      swap2\n      pop\n      pop\n      jump\t// out\n        /* \"#utility.yul\":690:807   */\n    tag_98:\n        /* \"#utility.yul\":799:800   */\n      0x00\n        /* \"#utility.yul\":796:797   */\n      dup1\n        /* \"#utility.yul\":789:801   */\n      revert\n        /* \"#utility.yul\":813:930   */\n    tag_99:\n        /* \"#utility.yul\":922:923   */\n      0x00\n        /* \"#utility.yul\":919:920   */\n      dup1\n        /* \"#utility.yul\":912:924   */\n      revert\n        /* \"#utility.yul\":936:1038   */\n    tag_100:\n        /* \"#utility.yul\":977:983   */\n      0x00\n        /* \"#utility.yul\":1028:1030   */\n      0x1f\n        /* \"#utility.yul\":1024:1031   */\n      not\n        /* \"#utility.yul\":1019:1021   */\n      0x1f\n        /* \"#utility.yul\":1012:1017   */\n      dup4\n        /* \"#utility.yul\":1008:1022   */\n      add\n        /* \"#utility.yul\":1004:1032   */\n      and\n        /* \"#utility.yul\":994:1032   */\n      swap1\n      pop\n        /* \"#utility.yul\":936:1038   */\n      swap2\n      swap1\n      pop\n      jump\t// out\n        /* \"#utility.yul\":1044:1224   */\n    tag_48:\n        /* \"#utility.yul\":1092:1169   */\n      0x4e487b7100000000000000000000000000000000000000000000000000000000\n        /* \"#utility.yul\":1089:1090   */\n      0x00\n        /* \"#utility.yul\":1082:1170   */\n      mstore\n        /* \"#utility.yul\":1189:1193   */\n      0x41\n        /* \"#utility.yul\":1186:1187   */\n      0x04\n        /* \"#utility.yul\":1179:1194   */\n      mstore\n        /* \"#utility.yul\":1213:1217   */\n      0x24\n        /* \"#utility.yul\":1210:1211   */\n      0x00\n        /* \"#utility.yul\":1203:1218   */\n      revert\n        /* \"#utility.yul\":1230:1511   */\n    tag_101:\n        /* \"#utility.yul\":1313:1340   */\n      tag_170\n        /* \"#utility.yul\":1335:1339   */\n      dup3\n        /* \"#utility.yul\":1313:1340   */\n      tag_100\n      jump\t// in\n    tag_170:\n        /* \"#utility.yul\":1305:1311   */\n      dup2\n        /* \"#utility.yul\":1301:1341   */\n      add\n        /* \"#utility.yul\":1443:1449   */\n      dup2\n        /* \"#utility.yul\":1431:1441   */\n      dup2\n        /* \"#utility.yul\":1428:1450   */\n      lt\n        /* \"#utility.yul\":1407:1425   */\n      0xffffffffffffffff\n        /* \"#utility.yul\":1395:1405   */\n      dup3\n        /* \"#utility.yul\":1392:1426   */\n      gt\n        /* \"#utility.yul\":1389:1451   */\n      or\n        /* \"#utility.yul\":1386:1474   */\n      iszero\n      tag_171\n      jumpi\n        /* \"#utility.yul\":1454:1472   */\n      tag_172\n      tag_48\n      jump\t// in\n    tag_172:\n        /* \"#utility.yul\":1386:1474   */\n    tag_171:\n        /* \"#utility.yul\":1494:1504   */\n      dup1\n        /* \"#utility.yul\":1490:1492   */\n      0x40\n        /* \"#utility.yul\":1483:1505   */\n      mstore\n        /* \"#utility.yul\":1273:1511   */\n      pop\n        /* \"#utility.yul\":1230:1511   */\n      pop\n      pop\n      jump\t// out\n        /* \"#utility.yul\":1517:1646   */\n    tag_102:\n        /* \"#utility.yul\":1551:1557   */\n      0x00\n        /* \"#utility.yul\":1578:1598   */\n      tag_174\n      tag_92\n      jump\t// in\n    tag_174:\n        /* \"#utility.yul\":1568:1598   */\n      swap1\n      pop\n        /* \"#utility.yul\":1607:1640   */\n      tag_175\n        /* \"#utility.yul\":1635:1639   */\n      dup3\n        /* \"#utility.yul\":1627:1633   */\n      dup3\n        /* \"#utility.yul\":1607:1640   */\n      tag_101\n      jump\t// in\n    tag_175:\n        /* \"#utility.yul\":1517:1646   */\n      swap2\n      swap1\n      pop\n      jump\t// out\n        /* \"#utility.yul\":1652:1960   */\n    tag_103:\n        /* \"#utility.yul\":1714:1718   */\n      0x00\n        /* \"#utility.yul\":1804:1822   */\n      0xffffffffffffffff\n        /* \"#utility.yul\":1796:1802   */\n      dup3\n        /* \"#utility.yul\":1793:1823   */\n      gt\n        /* \"#utility.yul\":1790:1846   */\n      iszero\n      tag_177\n      jumpi\n        /* \"#utility.yul\":1826:1844   */\n      tag_178\n      tag_48\n      jump\t// in\n    tag_178:\n        /* \"#utility.yul\":1790:1846   */\n    tag_177:\n        /* \"#utility.yul\":1864:1893   */\n      tag_179\n        /* \"#utility.yul\":1886:1892   */\n      dup3\n        /* \"#utility.yul\":1864:1893   */\n      tag_100\n      jump\t// in\n    tag_179:\n        /* \"#utility.yul\":1856:1893   */\n      swap1\n      pop\n        /* \"#utility.yul\":1948:1952   */\n      0x20\n        /* \"#utility.yul\":1942:1946   */\n      dup2\n        /* \"#utility.yul\":1938:1953   */\n      add\n        /* \"#utility.yul\":1930:1953   */\n      swap1\n      pop\n        /* \"#utility.yul\":1652:1960   */\n      swap2\n      swap1\n      pop\n      jump\t// out\n        /* \"#utility.yul\":1966:2114   */\n    tag_104:\n        /* \"#utility.yul\":2064:2070   */\n      dup3\n        /* \"#utility.yul\":2059:2062   */\n      dup2\n        /* \"#utility.yul\":2054:2057   */\n      dup4\n        /* \"#utility.yul\":2041:2071   */\n      calldatacopy\n        /* \"#utility.yul\":2105:2106   */\n      0x00\n        /* \"#utility.yul\":2096:2102   */\n      dup4\n        /* \"#utility.yul\":2091:2094   */\n      dup4\n        /* \"#utility.yul\":2087:2103   */\n      add\n        /* \"#utility.yul\":2080:2107   */\n      mstore\n        /* \"#utility.yul\":1966:2114   */\n      pop\n      pop\n      pop\n      jump\t// out\n        /* \"#utility.yul\":2120:2545   */\n    tag_105:\n        /* \"#utility.yul\":2198:2203   */\n      0x00\n        /* \"#utility.yul\":2223:2289   */\n      tag_182\n        /* \"#utility.yul\":2239:2288   */\n      tag_183\n        /* \"#utility.yul\":2281:2287   */\n      dup5\n        /* \"#utility.yul\":2239:2288   */\n      tag_103\n      jump\t// in\n    tag_183:\n        /* \"#utility.yul\":2223:2289   */\n      tag_102\n      jump\t// in\n    tag_182:\n        /* \"#utility.yul\":2214:2289   */\n      swap1\n      pop\n        /* \"#utility.yul\":2312:2318   */\n      dup3\n        /* \"#utility.yul\":2305:2310   */\n      dup2\n        /* \"#utility.yul\":2298:2319   */\n      mstore\n        /* \"#utility.yul\":2350:2354   */\n      0x20\n        /* \"#utility.yul\":2343:2348   */\n      dup2\n        /* \"#utility.yul\":2339:2355   */\n      add\n        /* \"#utility.yul\":2388:2391   */\n      dup5\n        /* \"#utility.yul\":2379:2385   */\n      dup5\n        /* \"#utility.yul\":2374:2377   */\n      dup5\n        /* \"#utility.yul\":2370:2386   */\n      add\n        /* \"#utility.yul\":2367:2392   */\n      gt\n        /* \"#utility.yul\":2364:2476   */\n      iszero\n      tag_184\n      jumpi\n        /* \"#utility.yul\":2395:2474   */\n      tag_185\n      tag_99\n      jump\t// in\n    tag_185:\n        /* \"#utility.yul\":2364:2476   */\n    tag_184:\n        /* \"#utility.yul\":2485:2539   */\n      tag_186\n        /* \"#utility.yul\":2532:2538   */\n      dup5\n        /* \"#utility.yul\":2527:2530   */\n      dup3\n        /* \"#utility.yul\":2522:2525   */\n      dup6\n        /* \"#utility.yul\":2485:2539   */\n      tag_104\n      jump\t// in\n    tag_186:\n        /* \"#utility.yul\":2204:2545   */\n      pop\n        /* \"#utility.yul\":2120:2545   */\n      swap4\n      swap3\n      pop\n      pop\n      pop\n      jump\t// out\n        /* \"#utility.yul\":2565:2905   */\n    tag_106:\n        /* \"#utility.yul\":2621:2626   */\n      0x00\n        /* \"#utility.yul\":2670:2673   */\n      dup3\n        /* \"#utility.yul\":2663:2667   */\n      0x1f\n        /* \"#utility.yul\":2655:2661   */\n      dup4\n        /* \"#utility.yul\":2651:2668   */\n      add\n        /* \"#utility.yul\":2647:2674   */\n      slt\n        /* \"#utility.yul\":2637:2759   */\n      tag_188\n      jumpi\n        /* \"#utility.yul\":2678:2757   */\n      tag_189\n      tag_98\n      jump\t// in\n    tag_189:\n        /* \"#utility.yul\":2637:2759   */\n    tag_188:\n        /* \"#utility.yul\":2795:2801   */\n      dup2\n        /* \"#utility.yul\":2782:2802   */\n      calldataload\n        /* \"#utility.yul\":2820:2899   */\n      tag_190\n        /* \"#utility.yul\":2895:2898   */\n      dup5\n        /* \"#utility.yul\":2887:2893   */\n      dup3\n        /* \"#utility.yul\":2880:2884   */\n      0x20\n        /* \"#utility.yul\":2872:2878   */\n      dup7\n        /* \"#utility.yul\":2868:2885   */\n      add\n        /* \"#utility.yul\":2820:2899   */\n      tag_105\n      jump\t// in\n    tag_190:\n        /* \"#utility.yul\":2811:2899   */\n      swap2\n      pop\n        /* \"#utility.yul\":2627:2905   */\n      pop\n        /* \"#utility.yul\":2565:2905   */\n      swap3\n      swap2\n      pop\n      pop\n      jump\t// out\n        /* \"#utility.yul\":2911:3565   */\n    tag_10:\n        /* \"#utility.yul\":2989:2995   */\n      0x00\n        /* \"#utility.yul\":2997:3003   */\n      dup1\n        /* \"#utility.yul\":3046:3048   */\n      0x40\n        /* \"#utility.yul\":3034:3043   */\n      dup4\n        /* \"#utility.yul\":3025:3032   */\n      dup6\n        /* \"#utility.yul\":3021:3044   */\n      sub\n        /* \"#utility.yul\":3017:3049   */\n      slt\n        /* \"#utility.yul\":3014:3133   */\n      iszero\n      tag_192\n      jumpi\n        /* \"#utility.yul\":3052:3131   */\n      tag_193\n      tag_93\n      jump\t// in\n    tag_193:\n        /* \"#utility.yul\":3014:3133   */\n    tag_192:\n        /* \"#utility.yul\":3172:3173   */\n      0x00\n        /* \"#utility.yul\":3197:3250   */\n      tag_194\n        /* \"#utility.yul\":3242:3249   */\n      dup6\n        /* \"#utility.yul\":3233:3239   */\n      dup3\n        /* \"#utility.yul\":3222:3231   */\n      dup7\n        /* \"#utility.yul\":3218:3240   */\n      add\n        /* \"#utility.yul\":3197:3250   */\n      tag_97\n      jump\t// in\n    tag_194:\n        /* \"#utility.yul\":3187:3250   */\n      swap3\n      pop\n        /* \"#utility.yul\":3143:3260   */\n      pop\n        /* \"#utility.yul\":3327:3329   */\n      0x20\n        /* \"#utility.yul\":3316:3325   */\n      dup4\n        /* \"#utility.yul\":3312:3330   */\n      add\n        /* \"#utility.yul\":3299:3331   */\n      calldataload\n        /* \"#utility.yul\":3358:3376   */\n      0xffffffffffffffff\n        /* \"#utility.yul\":3350:3356   */\n      dup2\n        /* \"#utility.yul\":3347:3377   */\n      gt\n        /* \"#utility.yul\":3344:3461   */\n      iszero\n      tag_195\n      jumpi\n        /* \"#utility.yul\":3380:3459   */\n      tag_196\n      tag_94\n      jump\t// in\n    tag_196:\n        /* \"#utility.yul\":3344:3461   */\n    tag_195:\n        /* \"#utility.yul\":3485:3548   */\n      tag_197\n        /* \"#utility.yul\":3540:3547   */\n      dup6\n        /* \"#utility.yul\":3531:3537   */\n      dup3\n        /* \"#utility.yul\":3520:3529   */\n      dup7\n        /* \"#utility.yul\":3516:3538   */\n      add\n        /* \"#utility.yul\":3485:3548   */\n      tag_106\n      jump\t// in\n    tag_197:\n        /* \"#utility.yul\":3475:3548   */\n      swap2\n      pop\n        /* \"#utility.yul\":3270:3558   */\n      pop\n        /* \"#utility.yul\":2911:3565   */\n      swap3\n      pop\n      swap3\n      swap1\n      pop\n      jump\t// out\n        /* \"#utility.yul\":3571:3892   */\n    tag_107:\n        /* \"#utility.yul\":3658:3662   */\n      0x00\n        /* \"#utility.yul\":3748:3766   */\n      0xffffffffffffffff\n        /* \"#utility.yul\":3740:3746   */\n      dup3\n        /* \"#utility.yul\":3737:3767   */\n      gt\n        /* \"#utility.yul\":3734:3790   */\n      iszero\n      tag_199\n      jumpi\n        /* \"#utility.yul\":3770:3788   */\n      tag_200\n      tag_48\n      jump\t// in\n    tag_200:\n        /* \"#utility.yul\":3734:3790   */\n    tag_199:\n        /* \"#utility.yul\":3820:3824   */\n      0x20\n        /* \"#utility.yul\":3812:3818   */\n      dup3\n        /* \"#utility.yul\":3808:3825   */\n      mul\n        /* \"#utility.yul\":3800:3825   */\n      swap1\n      pop\n        /* \"#utility.yul\":3880:3884   */\n      0x20\n        /* \"#utility.yul\":3874:3878   */\n      dup2\n        /* \"#utility.yul\":3870:3885   */\n      add\n        /* \"#utility.yul\":3862:3885   */\n      swap1\n      pop\n        /* \"#utility.yul\":3571:3892   */\n      swap2\n      swap1\n      pop\n      jump\t// out\n        /* \"#utility.yul\":3898:4015   */\n    tag_108:\n        /* \"#utility.yul\":4007:4008   */\n      0x00\n        /* \"#utility.yul\":4004:4005   */\n      dup1\n        /* \"#utility.yul\":3997:4009   */\n      revert\n        /* \"#utility.yul\":4037:4982   */\n    tag_109:\n        /* \"#utility.yul\":4143:4148   */\n      0x00\n        /* \"#utility.yul\":4168:4259   */\n      tag_203\n        /* \"#utility.yul\":4184:4258   */\n      tag_204\n        /* \"#utility.yul\":4251:4257   */\n      dup5\n        /* \"#utility.yul\":4184:4258   */\n      tag_107\n      jump\t// in\n    tag_204:\n        /* \"#utility.yul\":4168:4259   */\n      tag_102\n      jump\t// in\n    tag_203:\n        /* \"#utility.yul\":4159:4259   */\n      swap1\n      pop\n        /* \"#utility.yul\":4279:4284   */\n      dup1\n        /* \"#utility.yul\":4308:4314   */\n      dup4\n        /* \"#utility.yul\":4301:4306   */\n      dup3\n        /* \"#utility.yul\":4294:4315   */\n      mstore\n        /* \"#utility.yul\":4342:4346   */\n      0x20\n        /* \"#utility.yul\":4335:4340   */\n      dup3\n        /* \"#utility.yul\":4331:4347   */\n      add\n        /* \"#utility.yul\":4324:4347   */\n      swap1\n      pop\n        /* \"#utility.yul\":4395:4399   */\n      0x20\n        /* \"#utility.yul\":4387:4393   */\n      dup5\n        /* \"#utility.yul\":4383:4400   */\n      mul\n        /* \"#utility.yul\":4375:4381   */\n      dup4\n        /* \"#utility.yul\":4371:4401   */\n      add\n        /* \"#utility.yul\":4424:4427   */\n      dup6\n        /* \"#utility.yul\":4416:4422   */\n      dup2\n        /* \"#utility.yul\":4413:4428   */\n      gt\n        /* \"#utility.yul\":4410:4532   */\n      iszero\n      tag_205\n      jumpi\n        /* \"#utility.yul\":4443:4522   */\n      tag_206\n      tag_108\n      jump\t// in\n    tag_206:\n        /* \"#utility.yul\":4410:4532   */\n    tag_205:\n        /* \"#utility.yul\":4558:4564   */\n      dup4\n        /* \"#utility.yul\":4541:4976   */\n    tag_207:\n        /* \"#utility.yul\":4575:4581   */\n      dup2\n        /* \"#utility.yul\":4570:4573   */\n      dup2\n        /* \"#utility.yul\":4567:4582   */\n      lt\n        /* \"#utility.yul\":4541:4976   */\n      iszero\n      tag_209\n      jumpi\n        /* \"#utility.yul\":4664:4667   */\n      dup1\n        /* \"#utility.yul\":4651:4668   */\n      calldataload\n        /* \"#utility.yul\":4700:4718   */\n      0xffffffffffffffff\n        /* \"#utility.yul\":4687:4698   */\n      dup2\n        /* \"#utility.yul\":4684:4719   */\n      gt\n        /* \"#utility.yul\":4681:4803   */\n      iszero\n      tag_210\n      jumpi\n        /* \"#utility.yul\":4722:4801   */\n      tag_211\n      tag_98\n      jump\t// in\n    tag_211:\n        /* \"#utility.yul\":4681:4803   */\n    tag_210:\n        /* \"#utility.yul\":4846:4857   */\n      dup1\n        /* \"#utility.yul\":4838:4844   */\n      dup7\n        /* \"#utility.yul\":4834:4858   */\n      add\n        /* \"#utility.yul\":4884:4931   */\n      tag_212\n        /* \"#utility.yul\":4927:4930   */\n      dup10\n        /* \"#utility.yul\":4915:4925   */\n      dup3\n        /* \"#utility.yul\":4884:4931   */\n      tag_106\n      jump\t// in\n    tag_212:\n        /* \"#utility.yul\":4879:4882   */\n      dup6\n        /* \"#utility.yul\":4872:4932   */\n      mstore\n        /* \"#utility.yul\":4961:4965   */\n      0x20\n        /* \"#utility.yul\":4956:4959   */\n      dup6\n        /* \"#utility.yul\":4952:4966   */\n      add\n        /* \"#utility.yul\":4945:4966   */\n      swap5\n      pop\n        /* \"#utility.yul\":4617:4976   */\n      pop\n      pop\n        /* \"#utility.yul\":4601:4605   */\n      0x20\n        /* \"#utility.yul\":4596:4599   */\n      dup2\n        /* \"#utility.yul\":4592:4606   */\n      add\n        /* \"#utility.yul\":4585:4606   */\n      swap1\n      pop\n        /* \"#utility.yul\":4541:4976   */\n      jump(tag_207)\n    tag_209:\n        /* \"#utility.yul\":4545:4566   */\n      pop\n        /* \"#utility.yul\":4149:4982   */\n      pop\n      pop\n        /* \"#utility.yul\":4037:4982   */\n      swap4\n      swap3\n      pop\n      pop\n      pop\n      jump\t// out\n        /* \"#utility.yul\":5004:5394   */\n    tag_110:\n        /* \"#utility.yul\":5085:5090   */\n      0x00\n        /* \"#utility.yul\":5134:5137   */\n      dup3\n        /* \"#utility.yul\":5127:5131   */\n      0x1f\n        /* \"#utility.yul\":5119:5125   */\n      dup4\n        /* \"#utility.yul\":5115:5132   */\n      add\n        /* \"#utility.yul\":5111:5138   */\n      slt\n        /* \"#utility.yul\":5101:5223   */\n      tag_214\n      jumpi\n        /* \"#utility.yul\":5142:5221   */\n      tag_215\n      tag_98\n      jump\t// in\n    tag_215:\n        /* \"#utility.yul\":5101:5223   */\n    tag_214:\n        /* \"#utility.yul\":5259:5265   */\n      dup2\n        /* \"#utility.yul\":5246:5266   */\n      calldataload\n        /* \"#utility.yul\":5284:5388   */\n      tag_216\n        /* \"#utility.yul\":5384:5387   */\n      dup5\n        /* \"#utility.yul\":5376:5382   */\n      dup3\n        /* \"#utility.yul\":5369:5373   */\n      0x20\n        /* \"#utility.yul\":5361:5367   */\n      dup7\n        /* \"#utility.yul\":5357:5374   */\n      add\n        /* \"#utility.yul\":5284:5388   */\n      tag_109\n      jump\t// in\n    tag_216:\n        /* \"#utility.yul\":5275:5388   */\n      swap2\n      pop\n        /* \"#utility.yul\":5091:5394   */\n      pop\n        /* \"#utility.yul\":5004:5394   */\n      swap3\n      swap2\n      pop\n      pop\n      jump\t// out\n        /* \"#utility.yul\":5400:6284   */\n    tag_14:\n        /* \"#utility.yul\":5513:5519   */\n      0x00\n        /* \"#utility.yul\":5521:5527   */\n      dup1\n        /* \"#utility.yul\":5570:5572   */\n      0x40\n        /* \"#utility.yul\":5558:5567   */\n      dup4\n        /* \"#utility.yul\":5549:5556   */\n      dup6\n        /* \"#utility.yul\":5545:5568   */\n      sub\n        /* \"#utility.yul\":5541:5573   */\n      slt\n        /* \"#utility.yul\":5538:5657   */\n      iszero\n      tag_218\n      jumpi\n        /* \"#utility.yul\":5576:5655   */\n      tag_219\n      tag_93\n      jump\t// in\n    tag_219:\n        /* \"#utility.yul\":5538:5657   */\n    tag_218:\n        /* \"#utility.yul\":5724:5725   */\n      0x00\n        /* \"#utility.yul\":5713:5722   */\n      dup4\n        /* \"#utility.yul\":5709:5726   */\n      add\n        /* \"#utility.yul\":5696:5727   */\n      calldataload\n        /* \"#utility.yul\":5754:5772   */\n      0xffffffffffffffff\n        /* \"#utility.yul\":5746:5752   */\n      dup2\n        /* \"#utility.yul\":5743:5773   */\n      gt\n        /* \"#utility.yul\":5740:5857   */\n      iszero\n      tag_220\n      jumpi\n        /* \"#utility.yul\":5776:5855   */\n      tag_221\n      tag_94\n      jump\t// in\n    tag_221:\n        /* \"#utility.yul\":5740:5857   */\n    tag_220:\n        /* \"#utility.yul\":5881:5944   */\n      tag_222\n        /* \"#utility.yul\":5936:5943   */\n      dup6\n        /* \"#utility.yul\":5927:5933   */\n      dup3\n        /* \"#utility.yul\":5916:5925   */\n      dup7\n        /* \"#utility.yul\":5912:5934   */\n      add\n        /* \"#utility.yul\":5881:5944   */\n      tag_106\n      jump\t// in\n    tag_222:\n        /* \"#utility.yul\":5871:5944   */\n      swap3\n      pop\n        /* \"#utility.yul\":5667:5954   */\n      pop\n        /* \"#utility.yul\":6021:6023   */\n      0x20\n        /* \"#utility.yul\":6010:6019   */\n      dup4\n        /* \"#utility.yul\":6006:6024   */\n      add\n        /* \"#utility.yul\":5993:6025   */\n      calldataload\n        /* \"#utility.yul\":6052:6070   */\n      0xffffffffffffffff\n        /* \"#utility.yul\":6044:6050   */\n      dup2\n        /* \"#utility.yul\":6041:6071   */\n      gt\n        /* \"#utility.yul\":6038:6155   */\n      iszero\n      tag_223\n      jumpi\n        /* \"#utility.yul\":6074:6153   */\n      tag_224\n      tag_94\n      jump\t// in\n    tag_224:\n        /* \"#utility.yul\":6038:6155   */\n    tag_223:\n        /* \"#utility.yul\":6179:6267   */\n      tag_225\n        /* \"#utility.yul\":6259:6266   */\n      dup6\n        /* \"#utility.yul\":6250:6256   */\n      dup3\n        /* \"#utility.yul\":6239:6248   */\n      dup7\n        /* \"#utility.yul\":6235:6257   */\n      add\n        /* \"#utility.yul\":6179:6267   */\n      tag_110\n      jump\t// in\n    tag_225:\n        /* \"#utility.yul\":6169:6267   */\n      swap2\n      pop\n        /* \"#utility.yul\":5964:6277   */\n      pop\n        /* \"#utility.yul\":5400:6284   */\n      swap3\n      pop\n      swap3\n      swap1\n      pop\n      jump\t// out\n        /* \"#utility.yul\":6290:6619   */\n    tag_18:\n        /* \"#utility.yul\":6349:6355   */\n      0x00\n        /* \"#utility.yul\":6398:6400   */\n      0x20\n        /* \"#utility.yul\":6386:6395   */\n      dup3\n        /* \"#utility.yul\":6377:6384   */\n      dup5\n        /* \"#utility.yul\":6373:6396   */\n      sub\n        /* \"#utility.yul\":6369:6401   */\n      slt\n        /* \"#utility.yul\":6366:6485   */\n      iszero\n      tag_227\n      jumpi\n        /* \"#utility.yul\":6404:6483   */\n      tag_228\n      tag_93\n      jump\t// in\n    tag_228:\n        /* \"#utility.yul\":6366:6485   */\n    tag_227:\n        /* \"#utility.yul\":6524:6525   */\n      0x00\n        /* \"#utility.yul\":6549:6602   */\n      tag_229\n        /* \"#utility.yul\":6594:6601   */\n      dup5\n        /* \"#utility.yul\":6585:6591   */\n      dup3\n        /* \"#utility.yul\":6574:6583   */\n      dup6\n        /* \"#utility.yul\":6570:6592   */\n      add\n        /* \"#utility.yul\":6549:6602   */\n      tag_97\n      jump\t// in\n    tag_229:\n        /* \"#utility.yul\":6539:6602   */\n      swap2\n      pop\n        /* \"#utility.yul\":6495:6612   */\n      pop\n        /* \"#utility.yul\":6290:6619   */\n      swap3\n      swap2\n      pop\n      pop\n      jump\t// out\n        /* \"#utility.yul\":6625:6749   */\n    tag_111:\n        /* \"#utility.yul\":6702:6708   */\n      0x00\n        /* \"#utility.yul\":6736:6741   */\n      dup2\n        /* \"#utility.yul\":6730:6742   */\n      mload\n        /* \"#utility.yul\":6720:6742   */\n      swap1\n      pop\n        /* \"#utility.yul\":6625:6749   */\n      swap2\n      swap1\n      pop\n      jump\t// out\n        /* \"#utility.yul\":6755:6949   */\n    tag_112:\n        /* \"#utility.yul\":6864:6875   */\n      0x00\n        /* \"#utility.yul\":6898:6904   */\n      dup3\n        /* \"#utility.yul\":6893:6896   */\n      dup3\n        /* \"#utility.yul\":6886:6905   */\n      mstore\n        /* \"#utility.yul\":6938:6942   */\n      0x20\n        /* \"#utility.yul\":6933:6936   */\n      dup3\n        /* \"#utility.yul\":6929:6943   */\n      add\n        /* \"#utility.yul\":6914:6943   */\n      swap1\n      pop\n        /* \"#utility.yul\":6755:6949   */\n      swap3\n      swap2\n      pop\n      pop\n      jump\t// out\n        /* \"#utility.yul\":6955:7097   */\n    tag_113:\n        /* \"#utility.yul\":7032:7036   */\n      0x00\n        /* \"#utility.yul\":7055:7058   */\n      dup2\n        /* \"#utility.yul\":7047:7058   */\n      swap1\n      pop\n        /* \"#utility.yul\":7085:7089   */\n      0x20\n        /* \"#utility.yul\":7080:7083   */\n      dup3\n        /* \"#utility.yul\":7076:7090   */\n      add\n        /* \"#utility.yul\":7068:7090   */\n      swap1\n      pop\n        /* \"#utility.yul\":6955:7097   */\n      swap2\n      swap1\n      pop\n      jump\t// out\n        /* \"#utility.yul\":7103:7202   */\n    tag_114:\n        /* \"#utility.yul\":7155:7161   */\n      0x00\n        /* \"#utility.yul\":7189:7194   */\n      dup2\n        /* \"#utility.yul\":7183:7195   */\n      mload\n        /* \"#utility.yul\":7173:7195   */\n      swap1\n      pop\n        /* \"#utility.yul\":7103:7202   */\n      swap2\n      swap1\n      pop\n      jump\t// out\n        /* \"#utility.yul\":7208:7367   */\n    tag_115:\n        /* \"#utility.yul\":7282:7293   */\n      0x00\n        /* \"#utility.yul\":7316:7322   */\n      dup3\n        /* \"#utility.yul\":7311:7314   */\n      dup3\n        /* \"#utility.yul\":7304:7323   */\n      mstore\n        /* \"#utility.yul\":7356:7360   */\n      0x20\n        /* \"#utility.yul\":7351:7354   */\n      dup3\n        /* \"#utility.yul\":7347:7361   */\n      add\n        /* \"#utility.yul\":7332:7361   */\n      swap1\n      pop\n        /* \"#utility.yul\":7208:7367   */\n      swap3\n      swap2\n      pop\n      pop\n      jump\t// out\n        /* \"#utility.yul\":7373:7512   */\n    tag_116:\n        /* \"#utility.yul\":7462:7468   */\n      dup3\n        /* \"#utility.yul\":7457:7460   */\n      dup2\n        /* \"#utility.yul\":7452:7455   */\n      dup4\n        /* \"#utility.yul\":7446:7469   */\n      mcopy\n        /* \"#utility.yul\":7503:7504   */\n      0x00\n        /* \"#utility.yul\":7494:7500   */\n      dup4\n        /* \"#utility.yul\":7489:7492   */\n      dup4\n        /* \"#utility.yul\":7485:7501   */\n      add\n        /* \"#utility.yul\":7478:7505   */\n      mstore\n        /* \"#utility.yul\":7373:7512   */\n      pop\n      pop\n      pop\n      jump\t// out\n        /* \"#utility.yul\":7518:7875   */\n    tag_117:\n        /* \"#utility.yul\":7596:7599   */\n      0x00\n        /* \"#utility.yul\":7624:7663   */\n      tag_237\n        /* \"#utility.yul\":7657:7662   */\n      dup3\n        /* \"#utility.yul\":7624:7663   */\n      tag_114\n      jump\t// in\n    tag_237:\n        /* \"#utility.yul\":7679:7740   */\n      tag_238\n        /* \"#utility.yul\":7733:7739   */\n      dup2\n        /* \"#utility.yul\":7728:7731   */\n      dup6\n        /* \"#utility.yul\":7679:7740   */\n      tag_115\n      jump\t// in\n    tag_238:\n        /* \"#utility.yul\":7672:7740   */\n      swap4\n      pop\n        /* \"#utility.yul\":7749:7814   */\n      tag_239\n        /* \"#utility.yul\":7807:7813   */\n      dup2\n        /* \"#utility.yul\":7802:7805   */\n      dup6\n        /* \"#utility.yul\":7795:7799   */\n      0x20\n        /* \"#utility.yul\":7788:7793   */\n      dup7\n        /* \"#utility.yul\":7784:7800   */\n      add\n        /* \"#utility.yul\":7749:7814   */\n      tag_116\n      jump\t// in\n    tag_239:\n        /* \"#utility.yul\":7839:7868   */\n      tag_240\n        /* \"#utility.yul\":7861:7867   */\n      dup2\n        /* \"#utility.yul\":7839:7868   */\n      tag_100\n      jump\t// in\n    tag_240:\n        /* \"#utility.yul\":7834:7837   */\n      dup5\n        /* \"#utility.yul\":7830:7869   */\n      add\n        /* \"#utility.yul\":7823:7869   */\n      swap2\n      pop\n        /* \"#utility.yul\":7600:7875   */\n      pop\n        /* \"#utility.yul\":7518:7875   */\n      swap3\n      swap2\n      pop\n      pop\n      jump\t// out\n        /* \"#utility.yul\":7881:8077   */\n    tag_118:\n        /* \"#utility.yul\":7970:7980   */\n      0x00\n        /* \"#utility.yul\":8005:8071   */\n      tag_242\n        /* \"#utility.yul\":8067:8070   */\n      dup4\n        /* \"#utility.yul\":8059:8065   */\n      dup4\n        /* \"#utility.yul\":8005:8071   */\n      tag_117\n      jump\t// in\n    tag_242:\n        /* \"#utility.yul\":7991:8071   */\n      swap1\n      pop\n        /* \"#utility.yul\":7881:8077   */\n      swap3\n      swap2\n      pop\n      pop\n      jump\t// out\n        /* \"#utility.yul\":8083:8206   */\n    tag_119:\n        /* \"#utility.yul\":8163:8167   */\n      0x00\n        /* \"#utility.yul\":8195:8199   */\n      0x20\n        /* \"#utility.yul\":8190:8193   */\n      dup3\n        /* \"#utility.yul\":8186:8200   */\n      add\n        /* \"#utility.yul\":8178:8200   */\n      swap1\n      pop\n        /* \"#utility.yul\":8083:8206   */\n      swap2\n      swap1\n      pop\n      jump\t// out\n        /* \"#utility.yul\":8240:9231   */\n    tag_120:\n        /* \"#utility.yul\":8379:8382   */\n      0x00\n        /* \"#utility.yul\":8408:8472   */\n      tag_245\n        /* \"#utility.yul\":8466:8471   */\n      dup3\n        /* \"#utility.yul\":8408:8472   */\n      tag_111\n      jump\t// in\n    tag_245:\n        /* \"#utility.yul\":8488:8584   */\n      tag_246\n        /* \"#utility.yul\":8577:8583   */\n      dup2\n        /* \"#utility.yul\":8572:8575   */\n      dup6\n        /* \"#utility.yul\":8488:8584   */\n      tag_112\n      jump\t// in\n    tag_246:\n        /* \"#utility.yul\":8481:8584   */\n      swap4\n      pop\n        /* \"#utility.yul\":8610:8613   */\n      dup4\n        /* \"#utility.yul\":8655:8659   */\n      0x20\n        /* \"#utility.yul\":8647:8653   */\n      dup3\n        /* \"#utility.yul\":8643:8660   */\n      mul\n        /* \"#utility.yul\":8638:8641   */\n      dup6\n        /* \"#utility.yul\":8634:8661   */\n      add\n        /* \"#utility.yul\":8685:8751   */\n      tag_247\n        /* \"#utility.yul\":8745:8750   */\n      dup6\n        /* \"#utility.yul\":8685:8751   */\n      tag_113\n      jump\t// in\n    tag_247:\n        /* \"#utility.yul\":8774:8781   */\n      dup1\n        /* \"#utility.yul\":8805:8806   */\n      0x00\n        /* \"#utility.yul\":8790:9186   */\n    tag_248:\n        /* \"#utility.yul\":8815:8821   */\n      dup6\n        /* \"#utility.yul\":8812:8813   */\n      dup2\n        /* \"#utility.yul\":8809:8822   */\n      lt\n        /* \"#utility.yul\":8790:9186   */\n      iszero\n      tag_250\n      jumpi\n        /* \"#utility.yul\":8886:8895   */\n      dup5\n        /* \"#utility.yul\":8880:8884   */\n      dup5\n        /* \"#utility.yul\":8876:8896   */\n      sub\n        /* \"#utility.yul\":8871:8874   */\n      dup10\n        /* \"#utility.yul\":8864:8897   */\n      mstore\n        /* \"#utility.yul\":8937:8943   */\n      dup2\n        /* \"#utility.yul\":8931:8944   */\n      mload\n        /* \"#utility.yul\":8965:9049   */\n      tag_251\n        /* \"#utility.yul\":9044:9048   */\n      dup6\n        /* \"#utility.yul\":9029:9042   */\n      dup3\n        /* \"#utility.yul\":8965:9049   */\n      tag_118\n      jump\t// in\n    tag_251:\n        /* \"#utility.yul\":8957:9049   */\n      swap5\n      pop\n        /* \"#utility.yul\":9072:9142   */\n      tag_252\n        /* \"#utility.yul\":9135:9141   */\n      dup4\n        /* \"#utility.yul\":9072:9142   */\n      tag_119\n      jump\t// in\n    tag_252:\n        /* \"#utility.yul\":9062:9142   */\n      swap3\n      pop\n        /* \"#utility.yul\":9171:9175   */\n      0x20\n        /* \"#utility.yul\":9166:9169   */\n      dup11\n        /* \"#utility.yul\":9162:9176   */\n      add\n        /* \"#utility.yul\":9155:9176   */\n      swap10\n      pop\n        /* \"#utility.yul\":8850:9186   */\n      pop\n        /* \"#utility.yul\":8837:8838   */\n      0x01\n        /* \"#utility.yul\":8834:8835   */\n      dup2\n        /* \"#utility.yul\":8830:8839   */\n      add\n        /* \"#utility.yul\":8825:8839   */\n      swap1\n      pop\n        /* \"#utility.yul\":8790:9186   */\n      jump(tag_248)\n    tag_250:\n        /* \"#utility.yul\":8794:8808   */\n      pop\n        /* \"#utility.yul\":9202:9206   */\n      dup3\n        /* \"#utility.yul\":9195:9206   */\n      swap8\n      pop\n        /* \"#utility.yul\":9222:9225   */\n      dup8\n        /* \"#utility.yul\":9215:9225   */\n      swap6\n      pop\n        /* \"#utility.yul\":8384:9231   */\n      pop\n      pop\n      pop\n      pop\n      pop\n        /* \"#utility.yul\":8240:9231   */\n      swap3\n      swap2\n      pop\n      pop\n      jump\t// out\n        /* \"#utility.yul\":9237:9351   */\n    tag_121:\n        /* \"#utility.yul\":9304:9310   */\n      0x00\n        /* \"#utility.yul\":9338:9343   */\n      dup2\n        /* \"#utility.yul\":9332:9344   */\n      mload\n        /* \"#utility.yul\":9322:9344   */\n      swap1\n      pop\n        /* \"#utility.yul\":9237:9351   */\n      swap2\n      swap1\n      pop\n      jump\t// out\n        /* \"#utility.yul\":9357:9541   */\n    tag_122:\n        /* \"#utility.yul\":9456:9467   */\n      0x00\n        /* \"#utility.yul\":9490:9496   */\n      dup3\n        /* \"#utility.yul\":9485:9488   */\n      dup3\n        /* \"#utility.yul\":9478:9497   */\n      mstore\n        /* \"#utility.yul\":9530:9534   */\n      0x20\n        /* \"#utility.yul\":9525:9528   */\n      dup3\n        /* \"#utility.yul\":9521:9535   */\n      add\n        /* \"#utility.yul\":9506:9535   */\n      swap1\n      pop\n        /* \"#utility.yul\":9357:9541   */\n      swap3\n      swap2\n      pop\n      pop\n      jump\t// out\n        /* \"#utility.yul\":9547:9679   */\n    tag_123:\n        /* \"#utility.yul\":9614:9618   */\n      0x00\n        /* \"#utility.yul\":9637:9640   */\n      dup2\n        /* \"#utility.yul\":9629:9640   */\n      swap1\n      pop\n        /* \"#utility.yul\":9667:9671   */\n      0x20\n        /* \"#utility.yul\":9662:9665   */\n      dup3\n        /* \"#utility.yul\":9658:9672   */\n      add\n        /* \"#utility.yul\":9650:9672   */\n      swap1\n      pop\n        /* \"#utility.yul\":9547:9679   */\n      swap2\n      swap1\n      pop\n      jump\t// out\n        /* \"#utility.yul\":9685:9793   */\n    tag_124:\n        /* \"#utility.yul\":9762:9786   */\n      tag_257\n        /* \"#utility.yul\":9780:9785   */\n      dup2\n        /* \"#utility.yul\":9762:9786   */\n      tag_95\n      jump\t// in\n    tag_257:\n        /* \"#utility.yul\":9757:9760   */\n      dup3\n        /* \"#utility.yul\":9750:9787   */\n      mstore\n        /* \"#utility.yul\":9685:9793   */\n      pop\n      pop\n      jump\t// out\n        /* \"#utility.yul\":9799:9978   */\n    tag_125:\n        /* \"#utility.yul\":9868:9878   */\n      0x00\n        /* \"#utility.yul\":9889:9935   */\n      tag_259\n        /* \"#utility.yul\":9931:9934   */\n      dup4\n        /* \"#utility.yul\":9923:9929   */\n      dup4\n        /* \"#utility.yul\":9889:9935   */\n      tag_124\n      jump\t// in\n    tag_259:\n        /* \"#utility.yul\":9967:9971   */\n      0x20\n        /* \"#utility.yul\":9962:9965   */\n      dup4\n        /* \"#utility.yul\":9958:9972   */\n      add\n        /* \"#utility.yul\":9944:9972   */\n      swap1\n      pop\n        /* \"#utility.yul\":9799:9978   */\n      swap3\n      swap2\n      pop\n      pop\n      jump\t// out\n        /* \"#utility.yul\":9984:10097   */\n    tag_126:\n        /* \"#utility.yul\":10054:10058   */\n      0x00\n        /* \"#utility.yul\":10086:10090   */\n      0x20\n        /* \"#utility.yul\":10081:10084   */\n      dup3\n        /* \"#utility.yul\":10077:10091   */\n      add\n        /* \"#utility.yul\":10069:10091   */\n      swap1\n      pop\n        /* \"#utility.yul\":9984:10097   */\n      swap2\n      swap1\n      pop\n      jump\t// out\n        /* \"#utility.yul\":10133:10865   */\n    tag_127:\n        /* \"#utility.yul\":10252:10255   */\n      0x00\n        /* \"#utility.yul\":10281:10335   */\n      tag_262\n        /* \"#utility.yul\":10329:10334   */\n      dup3\n        /* \"#utility.yul\":10281:10335   */\n      tag_121\n      jump\t// in\n    tag_262:\n        /* \"#utility.yul\":10351:10437   */\n      tag_263\n        /* \"#utility.yul\":10430:10436   */\n      dup2\n        /* \"#utility.yul\":10425:10428   */\n      dup6\n        /* \"#utility.yul\":10351:10437   */\n      tag_122\n      jump\t// in\n    tag_263:\n        /* \"#utility.yul\":10344:10437   */\n      swap4\n      pop\n        /* \"#utility.yul\":10461:10517   */\n      tag_264\n        /* \"#utility.yul\":10511:10516   */\n      dup4\n        /* \"#utility.yul\":10461:10517   */\n      tag_123\n      jump\t// in\n    tag_264:\n        /* \"#utility.yul\":10540:10547   */\n      dup1\n        /* \"#utility.yul\":10571:10572   */\n      0x00\n        /* \"#utility.yul\":10556:10840   */\n    tag_265:\n        /* \"#utility.yul\":10581:10587   */\n      dup4\n        /* \"#utility.yul\":10578:10579   */\n      dup2\n        /* \"#utility.yul\":10575:10588   */\n      lt\n        /* \"#utility.yul\":10556:10840   */\n      iszero\n      tag_267\n      jumpi\n        /* \"#utility.yul\":10657:10663   */\n      dup2\n        /* \"#utility.yul\":10651:10664   */\n      mload\n        /* \"#utility.yul\":10684:10747   */\n      tag_268\n        /* \"#utility.yul\":10743:10746   */\n      dup9\n        /* \"#utility.yul\":10728:10741   */\n      dup3\n        /* \"#utility.yul\":10684:10747   */\n      tag_125\n      jump\t// in\n    tag_268:\n        /* \"#utility.yul\":10677:10747   */\n      swap8\n      pop\n        /* \"#utility.yul\":10770:10830   */\n      tag_269\n        /* \"#utility.yul\":10823:10829   */\n      dup4\n        /* \"#utility.yul\":10770:10830   */\n      tag_126\n      jump\t// in\n    tag_269:\n        /* \"#utility.yul\":10760:10830   */\n      swap3\n      pop\n        /* \"#utility.yul\":10616:10840   */\n      pop\n        /* \"#utility.yul\":10603:10604   */\n      0x01\n        /* \"#utility.yul\":10600:10601   */\n      dup2\n        /* \"#utility.yul\":10596:10605   */\n      add\n        /* \"#utility.yul\":10591:10605   */\n      swap1\n      pop\n        /* \"#utility.yul\":10556:10840   */\n      jump(tag_265)\n    tag_267:\n        /* \"#utility.yul\":10560:10574   */\n      pop\n        /* \"#utility.yul\":10856:10859   */\n      dup6\n        /* \"#utility.yul\":10849:10859   */\n      swap4\n      pop\n        /* \"#utility.yul\":10257:10865   */\n      pop\n      pop\n      pop\n        /* \"#utility.yul\":10133:10865   */\n      swap3\n      swap2\n      pop\n      pop\n      jump\t// out\n        /* \"#utility.yul\":10871:11545   */\n    tag_21:\n        /* \"#utility.yul\":11112:11116   */\n      0x00\n        /* \"#utility.yul\":11150:11152   */\n      0x40\n        /* \"#utility.yul\":11139:11148   */\n      dup3\n        /* \"#utility.yul\":11135:11153   */\n      add\n        /* \"#utility.yul\":11127:11153   */\n      swap1\n      pop\n        /* \"#utility.yul\":11199:11208   */\n      dup2\n        /* \"#utility.yul\":11193:11197   */\n      dup2\n        /* \"#utility.yul\":11189:11209   */\n      sub\n        /* \"#utility.yul\":11185:11186   */\n      0x00\n        /* \"#utility.yul\":11174:11183   */\n      dup4\n        /* \"#utility.yul\":11170:11187   */\n      add\n        /* \"#utility.yul\":11163:11210   */\n      mstore\n        /* \"#utility.yul\":11227:11355   */\n      tag_271\n        /* \"#utility.yul\":11350:11354   */\n      dup2\n        /* \"#utility.yul\":11341:11347   */\n      dup6\n        /* \"#utility.yul\":11227:11355   */\n      tag_120\n      jump\t// in\n    tag_271:\n        /* \"#utility.yul\":11219:11355   */\n      swap1\n      pop\n        /* \"#utility.yul\":11402:11411   */\n      dup2\n        /* \"#utility.yul\":11396:11400   */\n      dup2\n        /* \"#utility.yul\":11392:11412   */\n      sub\n        /* \"#utility.yul\":11387:11389   */\n      0x20\n        /* \"#utility.yul\":11376:11385   */\n      dup4\n        /* \"#utility.yul\":11372:11390   */\n      add\n        /* \"#utility.yul\":11365:11413   */\n      mstore\n        /* \"#utility.yul\":11430:11538   */\n      tag_272\n        /* \"#utility.yul\":11533:11537   */\n      dup2\n        /* \"#utility.yul\":11524:11530   */\n      dup5\n        /* \"#utility.yul\":11430:11538   */\n      tag_127\n      jump\t// in\n    tag_272:\n        /* \"#utility.yul\":11422:11538   */\n      swap1\n      pop\n        /* \"#utility.yul\":10871:11545   */\n      swap4\n      swap3\n      pop\n      pop\n      pop\n      jump\t// out\n        /* \"#utility.yul\":11551:11669   */\n    tag_128:\n        /* \"#utility.yul\":11638:11662   */\n      tag_274\n        /* \"#utility.yul\":11656:11661   */\n      dup2\n        /* \"#utility.yul\":11638:11662   */\n      tag_95\n      jump\t// in\n    tag_274:\n        /* \"#utility.yul\":11633:11636   */\n      dup3\n        /* \"#utility.yul\":11626:11663   */\n      mstore\n        /* \"#utility.yul\":11551:11669   */\n      pop\n      pop\n      jump\t// out\n        /* \"#utility.yul\":11675:11897   */\n    tag_25:\n        /* \"#utility.yul\":11768:11772   */\n      0x00\n        /* \"#utility.yul\":11806:11808   */\n      0x20\n        /* \"#utility.yul\":11795:11804   */\n      dup3\n        /* \"#utility.yul\":11791:11809   */\n      add\n        /* \"#utility.yul\":11783:11809   */\n      swap1\n      pop\n        /* \"#utility.yul\":11819:11890   */\n      tag_276\n        /* \"#utility.yul\":11887:11888   */\n      0x00\n        /* \"#utility.yul\":11876:11885   */\n      dup4\n        /* \"#utility.yul\":11872:11889   */\n      add\n        /* \"#utility.yul\":11863:11869   */\n      dup5\n        /* \"#utility.yul\":11819:11890   */\n      tag_128\n      jump\t// in\n    tag_276:\n        /* \"#utility.yul\":11675:11897   */\n      swap3\n      swap2\n      pop\n      pop\n      jump\t// out\n        /* \"#utility.yul\":11903:12072   */\n    tag_129:\n        /* \"#utility.yul\":11987:11998   */\n      0x00\n        /* \"#utility.yul\":12021:12027   */\n      dup3\n        /* \"#utility.yul\":12016:12019   */\n      dup3\n        /* \"#utility.yul\":12009:12028   */\n      mstore\n        /* \"#utility.yul\":12061:12065   */\n      0x20\n        /* \"#utility.yul\":12056:12059   */\n      dup3\n        /* \"#utility.yul\":12052:12066   */\n      add\n        /* \"#utility.yul\":12037:12066   */\n      swap1\n      pop\n        /* \"#utility.yul\":11903:12072   */\n      swap3\n      swap2\n      pop\n      pop\n      jump\t// out\n        /* \"#utility.yul\":12078:12455   */\n    tag_130:\n        /* \"#utility.yul\":12166:12169   */\n      0x00\n        /* \"#utility.yul\":12194:12233   */\n      tag_279\n        /* \"#utility.yul\":12227:12232   */\n      dup3\n        /* \"#utility.yul\":12194:12233   */\n      tag_114\n      jump\t// in\n    tag_279:\n        /* \"#utility.yul\":12249:12320   */\n      tag_280\n        /* \"#utility.yul\":12313:12319   */\n      dup2\n        /* \"#utility.yul\":12308:12311   */\n      dup6\n        /* \"#utility.yul\":12249:12320   */\n      tag_129\n      jump\t// in\n    tag_280:\n        /* \"#utility.yul\":12242:12320   */\n      swap4\n      pop\n        /* \"#utility.yul\":12329:12394   */\n      tag_281\n        /* \"#utility.yul\":12387:12393   */\n      dup2\n        /* \"#utility.yul\":12382:12385   */\n      dup6\n        /* \"#utility.yul\":12375:12379   */\n      0x20\n        /* \"#utility.yul\":12368:12373   */\n      dup7\n        /* \"#utility.yul\":12364:12380   */\n      add\n        /* \"#utility.yul\":12329:12394   */\n      tag_116\n      jump\t// in\n    tag_281:\n        /* \"#utility.yul\":12419:12448   */\n      tag_282\n        /* \"#utility.yul\":12441:12447   */\n      dup2\n        /* \"#utility.yul\":12419:12448   */\n      tag_100\n      jump\t// in\n    tag_282:\n        /* \"#utility.yul\":12414:12417   */\n      dup5\n        /* \"#utility.yul\":12410:12449   */\n      add\n        /* \"#utility.yul\":12403:12449   */\n      swap2\n      pop\n        /* \"#utility.yul\":12170:12455   */\n      pop\n        /* \"#utility.yul\":12078:12455   */\n      swap3\n      swap2\n      pop\n      pop\n      jump\t// out\n        /* \"#utility.yul\":12461:12551   */\n    tag_131:\n        /* \"#utility.yul\":12495:12502   */\n      0x00\n        /* \"#utility.yul\":12538:12543   */\n      dup2\n        /* \"#utility.yul\":12531:12544   */\n      iszero\n        /* \"#utility.yul\":12524:12545   */\n      iszero\n        /* \"#utility.yul\":12513:12545   */\n      swap1\n      pop\n        /* \"#utility.yul\":12461:12551   */\n      swap2\n      swap1\n      pop\n      jump\t// out\n        /* \"#utility.yul\":12557:12666   */\n    tag_132:\n        /* \"#utility.yul\":12638:12659   */\n      tag_285\n        /* \"#utility.yul\":12653:12658   */\n      dup2\n        /* \"#utility.yul\":12638:12659   */\n      tag_131\n      jump\t// in\n    tag_285:\n        /* \"#utility.yul\":12633:12636   */\n      dup3\n        /* \"#utility.yul\":12626:12660   */\n      mstore\n        /* \"#utility.yul\":12557:12666   */\n      pop\n      pop\n      jump\t// out\n        /* \"#utility.yul\":12672:13083   */\n    tag_30:\n        /* \"#utility.yul\":12807:12811   */\n      0x00\n        /* \"#utility.yul\":12845:12847   */\n      0x40\n        /* \"#utility.yul\":12834:12843   */\n      dup3\n        /* \"#utility.yul\":12830:12848   */\n      add\n        /* \"#utility.yul\":12822:12848   */\n      swap1\n      pop\n        /* \"#utility.yul\":12894:12903   */\n      dup2\n        /* \"#utility.yul\":12888:12892   */\n      dup2\n        /* \"#utility.yul\":12884:12904   */\n      sub\n        /* \"#utility.yul\":12880:12881   */\n      0x00\n        /* \"#utility.yul\":12869:12878   */\n      dup4\n        /* \"#utility.yul\":12865:12882   */\n      add\n        /* \"#utility.yul\":12858:12905   */\n      mstore\n        /* \"#utility.yul\":12922:13000   */\n      tag_287\n        /* \"#utility.yul\":12995:12999   */\n      dup2\n        /* \"#utility.yul\":12986:12992   */\n      dup6\n        /* \"#utility.yul\":12922:13000   */\n      tag_130\n      jump\t// in\n    tag_287:\n        /* \"#utility.yul\":12914:13000   */\n      swap1\n      pop\n        /* \"#utility.yul\":13010:13076   */\n      tag_288\n        /* \"#utility.yul\":13072:13074   */\n      0x20\n        /* \"#utility.yul\":13061:13070   */\n      dup4\n        /* \"#utility.yul\":13057:13075   */\n      add\n        /* \"#utility.yul\":13048:13054   */\n      dup5\n        /* \"#utility.yul\":13010:13076   */\n      tag_132\n      jump\t// in\n    tag_288:\n        /* \"#utility.yul\":12672:13083   */\n      swap4\n      swap3\n      pop\n      pop\n      pop\n      jump\t// out\n        /* \"#utility.yul\":13089:13257   */\n    tag_133:\n        /* \"#utility.yul\":13229:13249   */\n      0x506f6c6c206973206e6f74206163746976650000000000000000000000000000\n        /* \"#utility.yul\":13225:13226   */\n      0x00\n        /* \"#utility.yul\":13217:13223   */\n      dup3\n        /* \"#utility.yul\":13213:13227   */\n      add\n        /* \"#utility.yul\":13206:13250   */\n      mstore\n        /* \"#utility.yul\":13089:13257   */\n      pop\n      jump\t// out\n        /* \"#utility.yul\":13263:13629   */\n    tag_134:\n        /* \"#utility.yul\":13405:13408   */\n      0x00\n        /* \"#utility.yul\":13426:13493   */\n      tag_291\n        /* \"#utility.yul\":13490:13492   */\n      0x12\n        /* \"#utility.yul\":13485:13488   */\n      dup4\n        /* \"#utility.yul\":13426:13493   */\n      tag_129\n      jump\t// in\n    tag_291:\n        /* \"#utility.yul\":13419:13493   */\n      swap2\n      pop\n        /* \"#utility.yul\":13502:13595   */\n      tag_292\n        /* \"#utility.yul\":13591:13594   */\n      dup3\n        /* \"#utility.yul\":13502:13595   */\n      tag_133\n      jump\t// in\n    tag_292:\n        /* \"#utility.yul\":13620:13622   */\n      0x20\n        /* \"#utility.yul\":13615:13618   */\n      dup3\n        /* \"#utility.yul\":13611:13623   */\n      add\n        /* \"#utility.yul\":13604:13623   */\n      swap1\n      pop\n        /* \"#utility.yul\":13263:13629   */\n      swap2\n      swap1\n      pop\n      jump\t// out\n        /* \"#utility.yul\":13635:14054   */\n    tag_34:\n        /* \"#utility.yul\":13801:13805   */\n      0x00\n        /* \"#utility.yul\":13839:13841   */\n      0x20\n        /* \"#utility.yul\":13828:13837   */\n      dup3\n        /* \"#utility.yul\":13824:13842   */\n      add\n        /* \"#utility.yul\":13816:13842   */\n      swap1\n      pop\n        /* \"#utility.yul\":13888:13897   */\n      dup2\n        /* \"#utility.yul\":13882:13886   */\n      dup2\n        /* \"#utility.yul\":13878:13898   */\n      sub\n        /* \"#utility.yul\":13874:13875   */\n      0x00\n        /* \"#utility.yul\":13863:13872   */\n      dup4\n        /* \"#utility.yul\":13859:13876   */\n      add\n        /* \"#utility.yul\":13852:13899   */\n      mstore\n        /* \"#utility.yul\":13916:14047   */\n      tag_294\n        /* \"#utility.yul\":14042:14046   */\n      dup2\n        /* \"#utility.yul\":13916:14047   */\n      tag_134\n      jump\t// in\n    tag_294:\n        /* \"#utility.yul\":13908:14047   */\n      swap1\n      pop\n        /* \"#utility.yul\":13635:14054   */\n      swap2\n      swap1\n      pop\n      jump\t// out\n        /* \"#utility.yul\":14060:14208   */\n    tag_135:\n        /* \"#utility.yul\":14162:14173   */\n      0x00\n        /* \"#utility.yul\":14199:14202   */\n      dup2\n        /* \"#utility.yul\":14184:14202   */\n      swap1\n      pop\n        /* \"#utility.yul\":14060:14208   */\n      swap3\n      swap2\n      pop\n      pop\n      jump\t// out\n        /* \"#utility.yul\":14214:14604   */\n    tag_136:\n        /* \"#utility.yul\":14320:14323   */\n      0x00\n        /* \"#utility.yul\":14348:14387   */\n      tag_297\n        /* \"#utility.yul\":14381:14386   */\n      dup3\n        /* \"#utility.yul\":14348:14387   */\n      tag_114\n      jump\t// in\n    tag_297:\n        /* \"#utility.yul\":14403:14492   */\n      tag_298\n        /* \"#utility.yul\":14485:14491   */\n      dup2\n        /* \"#utility.yul\":14480:14483   */\n      dup6\n        /* \"#utility.yul\":14403:14492   */\n      tag_135\n      jump\t// in\n    tag_298:\n        /* \"#utility.yul\":14396:14492   */\n      swap4\n      pop\n        /* \"#utility.yul\":14501:14566   */\n      tag_299\n        /* \"#utility.yul\":14559:14565   */\n      dup2\n        /* \"#utility.yul\":14554:14557   */\n      dup6\n        /* \"#utility.yul\":14547:14551   */\n      0x20\n        /* \"#utility.yul\":14540:14545   */\n      dup7\n        /* \"#utility.yul\":14536:14552   */\n      add\n        /* \"#utility.yul\":14501:14566   */\n      tag_116\n      jump\t// in\n    tag_299:\n        /* \"#utility.yul\":14591:14597   */\n      dup1\n        /* \"#utility.yul\":14586:14589   */\n      dup5\n        /* \"#utility.yul\":14582:14598   */\n      add\n        /* \"#utility.yul\":14575:14598   */\n      swap2\n      pop\n        /* \"#utility.yul\":14324:14604   */\n      pop\n        /* \"#utility.yul\":14214:14604   */\n      swap3\n      swap2\n      pop\n      pop\n      jump\t// out\n        /* \"#utility.yul\":14610:14885   */\n    tag_36:\n        /* \"#utility.yul\":14742:14745   */\n      0x00\n        /* \"#utility.yul\":14764:14859   */\n      tag_301\n        /* \"#utility.yul\":14855:14858   */\n      dup3\n        /* \"#utility.yul\":14846:14852   */\n      dup5\n        /* \"#utility.yul\":14764:14859   */\n      tag_136\n      jump\t// in\n    tag_301:\n        /* \"#utility.yul\":14757:14859   */\n      swap2\n      pop\n        /* \"#utility.yul\":14876:14879   */\n      dup2\n        /* \"#utility.yul\":14869:14879   */\n      swap1\n      pop\n        /* \"#utility.yul\":14610:14885   */\n      swap3\n      swap2\n      pop\n      pop\n      jump\t// out\n        /* \"#utility.yul\":14891:15071   */\n    tag_137:\n        /* \"#utility.yul\":14939:15016   */\n      0x4e487b7100000000000000000000000000000000000000000000000000000000\n        /* \"#utility.yul\":14936:14937   */\n      0x00\n        /* \"#utility.yul\":14929:15017   */\n      mstore\n        /* \"#utility.yul\":15036:15040   */\n      0x11\n        /* \"#utility.yul\":15033:15034   */\n      0x04\n        /* \"#utility.yul\":15026:15041   */\n      mstore\n        /* \"#utility.yul\":15060:15064   */\n      0x24\n        /* \"#utility.yul\":15057:15058   */\n      0x00\n        /* \"#utility.yul\":15050:15065   */\n      revert\n        /* \"#utility.yul\":15077:15310   */\n    tag_38:\n        /* \"#utility.yul\":15116:15119   */\n      0x00\n        /* \"#utility.yul\":15139:15163   */\n      tag_304\n        /* \"#utility.yul\":15157:15162   */\n      dup3\n        /* \"#utility.yul\":15139:15163   */\n      tag_95\n      jump\t// in\n    tag_304:\n        /* \"#utility.yul\":15130:15163   */\n      swap2\n      pop\n        /* \"#utility.yul\":15185:15251   */\n      0xffffffffffffffffffffffffffffffffffffffffffffffffffffffffffffffff\n        /* \"#utility.yul\":15178:15183   */\n      dup3\n        /* \"#utility.yul\":15175:15252   */\n      sub\n        /* \"#utility.yul\":15172:15275   */\n      tag_305\n      jumpi\n        /* \"#utility.yul\":15255:15273   */\n      tag_306\n      tag_137\n      jump\t// in\n    tag_306:\n        /* \"#utility.yul\":15172:15275   */\n    tag_305:\n        /* \"#utility.yul\":15302:15303   */\n      0x01\n        /* \"#utility.yul\":15295:15300   */\n      dup3\n        /* \"#utility.yul\":15291:15304   */\n      add\n        /* \"#utility.yul\":15284:15304   */\n      swap1\n      pop\n        /* \"#utility.yul\":15077:15310   */\n      swap2\n      swap1\n      pop\n      jump\t// out\n        /* \"#utility.yul\":15316:15496   */\n    tag_138:\n        /* \"#utility.yul\":15364:15441   */\n      0x4e487b7100000000000000000000000000000000000000000000000000000000\n        /* \"#utility.yul\":15361:15362   */\n      0x00\n        /* \"#utility.yul\":15354:15442   */\n      mstore\n        /* \"#utility.yul\":15461:15465   */\n      0x22\n        /* \"#utility.yul\":15458:15459   */\n      0x04\n        /* \"#utility.yul\":15451:15466   */\n      mstore\n        /* \"#utility.yul\":15485:15489   */\n      0x24\n        /* \"#utility.yul\":15482:15483   */\n      0x00\n        /* \"#utility.yul\":15475:15490   */\n      revert\n        /* \"#utility.yul\":15502:15822   */\n    tag_65:\n        /* \"#utility.yul\":15546:15552   */\n      0x00\n        /* \"#utility.yul\":15583:15584   */\n      0x02\n        /* \"#utility.yul\":15577:15581   */\n      dup3\n        /* \"#utility.yul\":15573:15585   */\n      div\n        /* \"#utility.yul\":15563:15585   */\n      swap1\n      pop\n        /* \"#utility.yul\":15630:15631   */\n      0x01\n        /* \"#utility.yul\":15624:15628   */\n      dup3\n        /* \"#utility.yul\":15620:15632   */\n      and\n        /* \"#utility.yul\":15651:15669   */\n      dup1\n        /* \"#utility.yul\":15641:15722   */\n      tag_309\n      jumpi\n        /* \"#utility.yul\":15707:15711   */\n      0x7f\n        /* \"#utility.yul\":15699:15705   */\n      dup3\n        /* \"#utility.yul\":15695:15712   */\n      and\n        /* \"#utility.yul\":15685:15712   */\n      swap2\n      pop\n        /* \"#utility.yul\":15641:15722   */\n    tag_309:\n        /* \"#utility.yul\":15769:15771   */\n      0x20\n        /* \"#utility.yul\":15761:15767   */\n      dup3\n        /* \"#utility.yul\":15758:15772   */\n      lt\n        /* \"#utility.yul\":15738:15756   */\n      dup2\n        /* \"#utility.yul\":15735:15773   */\n      sub\n        /* \"#utility.yul\":15732:15816   */\n      tag_310\n      jumpi\n        /* \"#utility.yul\":15788:15806   */\n      tag_311\n      tag_138\n      jump\t// in\n    tag_311:\n        /* \"#utility.yul\":15732:15816   */\n    tag_310:\n        /* \"#utility.yul\":15553:15822   */\n      pop\n        /* \"#utility.yul\":15502:15822   */\n      swap2\n      swap1\n      pop\n      jump\t// out\n        /* \"#utility.yul\":15828:15969   */\n    tag_139:\n        /* \"#utility.yul\":15877:15881   */\n      0x00\n        /* \"#utility.yul\":15900:15903   */\n      dup2\n        /* \"#utility.yul\":15892:15903   */\n      swap1\n      pop\n        /* \"#utility.yul\":15923:15926   */\n      dup2\n        /* \"#utility.yul\":15920:15921   */\n      0x00\n        /* \"#utility.yul\":15913:15927   */\n      mstore\n        /* \"#utility.yul\":15957:15961   */\n      0x20\n        /* \"#utility.yul\":15954:15955   */\n      0x00\n        /* \"#utility.yul\":15944:15962   */\n      keccak256\n        /* \"#utility.yul\":15936:15962   */\n      swap1\n      pop\n        /* \"#utility.yul\":15828:15969   */\n      swap2\n      swap1\n      pop\n      jump\t// out\n        /* \"#utility.yul\":15975:16068   */\n    tag_140:\n        /* \"#utility.yul\":16012:16018   */\n      0x00\n        /* \"#utility.yul\":16059:16061   */\n      0x20\n        /* \"#utility.yul\":16054:16056   */\n      0x1f\n        /* \"#utility.yul\":16047:16052   */\n      dup4\n        /* \"#utility.yul\":16043:16057   */\n      add\n        /* \"#utility.yul\":16039:16062   */\n      div\n        /* \"#utility.yul\":16029:16062   */\n      swap1\n      pop\n        /* \"#utility.yul\":15975:16068   */\n      swap2\n      swap1\n      pop\n      jump\t// out\n        /* \"#utility.yul\":16074:16181   */\n    tag_141:\n        /* \"#utility.yul\":16118:16126   */\n      0x00\n        /* \"#utility.yul\":16168:16173   */\n      dup3\n        /* \"#utility.yul\":16162:16166   */\n      dup3\n        /* \"#utility.yul\":16158:16174   */\n      shl\n        /* \"#utility.yul\":16137:16174   */\n      swap1\n      pop\n        /* \"#utility.yul\":16074:16181   */\n      swap3\n      swap2\n      pop\n      pop\n      jump\t// out\n        /* \"#utility.yul\":16187:16580   */\n    tag_142:\n        /* \"#utility.yul\":16256:16262   */\n      0x00\n        /* \"#utility.yul\":16306:16307   */\n      0x08\n        /* \"#utility.yul\":16294:16304   */\n      dup4\n        /* \"#utility.yul\":16290:16308   */\n      mul\n        /* \"#utility.yul\":16329:16426   */\n      tag_316\n        /* \"#utility.yul\":16359:16425   */\n      0xffffffffffffffffffffffffffffffffffffffffffffffffffffffffffffffff\n        /* \"#utility.yul\":16348:16357   */\n      dup3\n        /* \"#utility.yul\":16329:16426   */\n      tag_141\n      jump\t// in\n    tag_316:\n        /* \"#utility.yul\":16447:16486   */\n      tag_317\n        /* \"#utility.yul\":16477:16485   */\n      dup7\n        /* \"#utility.yul\":16466:16475   */\n      dup4\n        /* \"#utility.yul\":16447:16486   */\n      tag_141\n      jump\t// in\n    tag_317:\n        /* \"#utility.yul\":16435:16486   */\n      swap6\n      pop\n        /* \"#utility.yul\":16519:16523   */\n      dup1\n        /* \"#utility.yul\":16515:16524   */\n      not\n        /* \"#utility.yul\":16508:16513   */\n      dup5\n        /* \"#utility.yul\":16504:16525   */\n      and\n        /* \"#utility.yul\":16495:16525   */\n      swap4\n      pop\n        /* \"#utility.yul\":16568:16572   */\n      dup1\n        /* \"#utility.yul\":16558:16566   */\n      dup7\n        /* \"#utility.yul\":16554:16573   */\n      and\n        /* \"#utility.yul\":16547:16552   */\n      dup5\n        /* \"#utility.yul\":16544:16574   */\n      or\n        /* \"#utility.yul\":16534:16574   */\n      swap3\n      pop\n        /* \"#utility.yul\":16263:16580   */\n      pop\n      pop\n        /* \"#utility.yul\":16187:16580   */\n      swap4\n      swap3\n      pop\n      pop\n      pop\n      jump\t// out\n        /* \"#utility.yul\":16586:16646   */\n    tag_143:\n        /* \"#utility.yul\":16614:16617   */\n      0x00\n        /* \"#utility.yul\":16635:16640   */\n      dup2\n        /* \"#utility.yul\":16628:16640   */\n      swap1\n      pop\n        /* \"#utility.yul\":16586:16646   */\n      swap2\n      swap1\n      pop\n      jump\t// out\n        /* \"#utility.yul\":16652:16794   */\n    tag_144:\n        /* \"#utility.yul\":16702:16711   */\n      0x00\n        /* \"#utility.yul\":16735:16788   */\n      tag_320\n        /* \"#utility.yul\":16753:16787   */\n      tag_321\n        /* \"#utility.yul\":16762:16786   */\n      tag_322\n        /* \"#utility.yul\":16780:16785   */\n      dup5\n        /* \"#utility.yul\":16762:16786   */\n      tag_95\n      jump\t// in\n    tag_322:\n        /* \"#utility.yul\":16753:16787   */\n      tag_143\n      jump\t// in\n    tag_321:\n        /* \"#utility.yul\":16735:16788   */\n      tag_95\n      jump\t// in\n    tag_320:\n        /* \"#utility.yul\":16722:16788   */\n      swap1\n      pop\n        /* \"#utility.yul\":16652:16794   */\n      swap2\n      swap1\n      pop\n      jump\t// out\n        /* \"#utility.yul\":16800:16875   */\n    tag_145:\n        /* \"#utility.yul\":16843:16846   */\n      0x00\n        /* \"#utility.yul\":16864:16869   */\n      dup2\n        /* \"#utility.yul\":16857:16869   */\n      swap1\n      pop\n        /* \"#utility.yul\":16800:16875   */\n      swap2\n      swap1\n      pop\n      jump\t// out\n        /* \"#utility.yul\":16881:17150   */\n    tag_146:\n        /* \"#utility.yul\":16991:17030   */\n      tag_325\n        /* \"#utility.yul\":17022:17029   */\n      dup4\n        /* \"#utility.yul\":16991:17030   */\n      tag_144\n      jump\t// in\n    tag_325:\n        /* \"#utility.yul\":17052:17143   */\n      tag_326\n        /* \"#utility.yul\":17101:17142   */\n      tag_327\n        /* \"#utility.yul\":17125:17141   */\n      dup3\n        /* \"#utility.yul\":17101:17142   */\n      tag_145\n      jump\t// in\n    tag_327:\n        /* \"#utility.yul\":17093:17099   */\n      dup5\n        /* \"#utility.yul\":17086:17090   */\n      dup5\n        /* \"#utility.yul\":17080:17091   */\n      sload\n        /* \"#utility.yul\":17052:17143   */\n      tag_142\n      jump\t// in\n    tag_326:\n        /* \"#utility.yul\":17046:17050   */\n      dup3\n        /* \"#utility.yul\":17039:17144   */\n      sstore\n        /* \"#utility.yul\":16957:17150   */\n      pop\n        /* \"#utility.yul\":16881:17150   */\n      pop\n      pop\n      pop\n      jump\t// out\n        /* \"#utility.yul\":17156:17229   */\n    tag_147:\n        /* \"#utility.yul\":17201:17204   */\n      0x00\n        /* \"#utility.yul\":17156:17229   */\n      swap1\n      jump\t// out\n        /* \"#utility.yul\":17235:17424   */\n    tag_148:\n        /* \"#utility.yul\":17312:17344   */\n      tag_330\n      tag_147\n      jump\t// in\n    tag_330:\n        /* \"#utility.yul\":17353:17418   */\n      tag_331\n        /* \"#utility.yul\":17411:17417   */\n      dup2\n        /* \"#utility.yul\":17403:17409   */\n      dup5\n        /* \"#utility.yul\":17397:17401   */\n      dup5\n        /* \"#utility.yul\":17353:17418   */\n      tag_146\n      jump\t// in\n    tag_331:\n        /* \"#utility.yul\":17288:17424   */\n      pop\n        /* \"#utility.yul\":17235:17424   */\n      pop\n      pop\n      jump\t// out\n        /* \"#utility.yul\":17430:17616   */\n    tag_149:\n        /* \"#utility.yul\":17490:17610   */\n    tag_333:\n        /* \"#utility.yul\":17507:17510   */\n      dup2\n        /* \"#utility.yul\":17500:17505   */\n      dup2\n        /* \"#utility.yul\":17497:17511   */\n      lt\n        /* \"#utility.yul\":17490:17610   */\n      iszero\n      tag_335\n      jumpi\n        /* \"#utility.yul\":17561:17600   */\n      tag_336\n        /* \"#utility.yul\":17598:17599   */\n      0x00\n        /* \"#utility.yul\":17591:17596   */\n      dup3\n        /* \"#utility.yul\":17561:17600   */\n      tag_148\n      jump\t// in\n    tag_336:\n        /* \"#utility.yul\":17534:17535   */\n      0x01\n        /* \"#utility.yul\":17527:17532   */\n      dup2\n        /* \"#utility.yul\":17523:17536   */\n      add\n        /* \"#utility.yul\":17514:17536   */\n      swap1\n      pop\n        /* \"#utility.yul\":17490:17610   */\n      jump(tag_333)\n    tag_335:\n        /* \"#utility.yul\":17430:17616   */\n      pop\n      pop\n      jump\t// out\n        /* \"#utility.yul\":17622:18165   */\n    tag_150:\n        /* \"#utility.yul\":17723:17725   */\n      0x1f\n        /* \"#utility.yul\":17718:17721   */\n      dup3\n        /* \"#utility.yul\":17715:17726   */\n      gt\n        /* \"#utility.yul\":17712:18158   */\n      iszero\n      tag_338\n      jumpi\n        /* \"#utility.yul\":17757:17795   */\n      tag_339\n        /* \"#utility.yul\":17789:17794   */\n      dup2\n        /* \"#utility.yul\":17757:17795   */\n      tag_139\n      jump\t// in\n    tag_339:\n        /* \"#utility.yul\":17841:17870   */\n      tag_340\n        /* \"#utility.yul\":17859:17869   */\n      dup5\n        /* \"#utility.yul\":17841:17870   */\n      tag_140\n      jump\t// in\n    tag_340:\n        /* \"#utility.yul\":17831:17839   */\n      dup2\n        /* \"#utility.yul\":17827:17871   */\n      add\n        /* \"#utility.yul\":18024:18026   */\n      0x20\n        /* \"#utility.yul\":18012:18022   */\n      dup6\n        /* \"#utility.yul\":18009:18027   */\n      lt\n        /* \"#utility.yul\":18006:18055   */\n      iszero\n      tag_341\n      jumpi\n        /* \"#utility.yul\":18045:18053   */\n      dup2\n        /* \"#utility.yul\":18030:18053   */\n      swap1\n      pop\n        /* \"#utility.yul\":18006:18055   */\n    tag_341:\n        /* \"#utility.yul\":18068:18148   */\n      tag_342\n        /* \"#utility.yul\":18124:18146   */\n      tag_343\n        /* \"#utility.yul\":18142:18145   */\n      dup6\n        /* \"#utility.yul\":18124:18146   */\n      tag_140\n      jump\t// in\n    tag_343:\n        /* \"#utility.yul\":18114:18122   */\n      dup4\n        /* \"#utility.yul\":18110:18147   */\n      add\n        /* \"#utility.yul\":18097:18108   */\n      dup3\n        /* \"#utility.yul\":18068:18148   */\n      tag_149\n      jump\t// in\n    tag_342:\n        /* \"#utility.yul\":17727:18158   */\n      pop\n      pop\n        /* \"#utility.yul\":17712:18158   */\n    tag_338:\n        /* \"#utility.yul\":17622:18165   */\n      pop\n      pop\n      pop\n      jump\t// out\n        /* \"#utility.yul\":18171:18288   */\n    tag_151:\n        /* \"#utility.yul\":18225:18233   */\n      0x00\n        /* \"#utility.yul\":18275:18280   */\n      dup3\n        /* \"#utility.yul\":18269:18273   */\n      dup3\n        /* \"#utility.yul\":18265:18281   */\n      shr\n        /* \"#utility.yul\":18244:18281   */\n      swap1\n      pop\n        /* \"#utility.yul\":18171:18288   */\n      swap3\n      swap2\n      pop\n      pop\n      jump\t// out\n        /* \"#utility.yul\":18294:18463   */\n    tag_152:\n        /* \"#utility.yul\":18338:18344   */\n      0x00\n        /* \"#utility.yul\":18371:18422   */\n      tag_346\n        /* \"#utility.yul\":18419:18420   */\n      0x00\n        /* \"#utility.yul\":18415:18421   */\n      not\n        /* \"#utility.yul\":18407:18412   */\n      dup5\n        /* \"#utility.yul\":18404:18405   */\n      0x08\n        /* \"#utility.yul\":18400:18413   */\n      mul\n        /* \"#utility.yul\":18371:18422   */\n      tag_151\n      jump\t// in\n    tag_346:\n        /* \"#utility.yul\":18367:18423   */\n      not\n        /* \"#utility.yul\":18452:18456   */\n      dup1\n        /* \"#utility.yul\":18446:18450   */\n      dup4\n        /* \"#utility.yul\":18442:18457   */\n      and\n        /* \"#utility.yul\":18432:18457   */\n      swap2\n      pop\n        /* \"#utility.yul\":18345:18463   */\n      pop\n        /* \"#utility.yul\":18294:18463   */\n      swap3\n      swap2\n      pop\n      pop\n      jump\t// out\n        /* \"#utility.yul\":18468:18763   */\n    tag_153:\n        /* \"#utility.yul\":18544:18548   */\n      0x00\n        /* \"#utility.yul\":18690:18719   */\n      tag_348\n        /* \"#utility.yul\":18715:18718   */\n      dup4\n        /* \"#utility.yul\":18709:18713   */\n      dup4\n        /* \"#utility.yul\":18690:18719   */\n      tag_152\n      jump\t// in\n    tag_348:\n        /* \"#utility.yul\":18682:18719   */\n      swap2\n      pop\n        /* \"#utility.yul\":18752:18755   */\n      dup3\n        /* \"#utility.yul\":18749:18750   */\n      0x02\n        /* \"#utility.yul\":18745:18756   */\n      mul\n        /* \"#utility.yul\":18739:18743   */\n      dup3\n        /* \"#utility.yul\":18736:18757   */\n      or\n        /* \"#utility.yul\":18728:18757   */\n      swap1\n      pop\n        /* \"#utility.yul\":18468:18763   */\n      swap3\n      swap2\n      pop\n      pop\n      jump\t// out\n        /* \"#utility.yul\":18768:20163   */\n    tag_42:\n        /* \"#utility.yul\":18885:18922   */\n      tag_350\n        /* \"#utility.yul\":18918:18921   */\n      dup3\n        /* \"#utility.yul\":18885:18922   */\n      tag_114\n      jump\t// in\n    tag_350:\n        /* \"#utility.yul\":18987:19005   */\n      0xffffffffffffffff\n        /* \"#utility.yul\":18979:18985   */\n      dup2\n        /* \"#utility.yul\":18976:19006   */\n      gt\n        /* \"#utility.yul\":18973:19029   */\n      iszero\n      tag_351\n      jumpi\n        /* \"#utility.yul\":19009:19027   */\n      tag_352\n      tag_48\n      jump\t// in\n    tag_352:\n        /* \"#utility.yul\":18973:19029   */\n    tag_351:\n        /* \"#utility.yul\":19053:19091   */\n      tag_353\n        /* \"#utility.yul\":19085:19089   */\n      dup3\n        /* \"#utility.yul\":19079:19090   */\n      sload\n        /* \"#utility.yul\":19053:19091   */\n      tag_65\n      jump\t// in\n    tag_353:\n        /* \"#utility.yul\":19138:19205   */\n      tag_354\n        /* \"#utility.yul\":19198:19204   */\n      dup3\n        /* \"#utility.yul\":19190:19196   */\n      dup3\n        /* \"#utility.yul\":19184:19188   */\n      dup6\n        /* \"#utility.yul\":19138:19205   */\n      tag_150\n      jump\t// in\n    tag_354:\n        /* \"#utility.yul\":19232:19233   */\n      0x00\n        /* \"#utility.yul\":19256:19260   */\n      0x20\n        /* \"#utility.yul\":19243:19260   */\n      swap1\n      pop\n        /* \"#utility.yul\":19288:19290   */\n      0x1f\n        /* \"#utility.yul\":19280:19286   */\n      dup4\n        /* \"#utility.yul\":19277:19291   */\n      gt\n        /* \"#utility.yul\":19305:19306   */\n      0x01\n        /* \"#utility.yul\":19300:19918   */\n      dup2\n      eq\n      tag_356\n      jumpi\n        /* \"#utility.yul\":19962:19963   */\n      0x00\n        /* \"#utility.yul\":19979:19985   */\n      dup5\n        /* \"#utility.yul\":19976:20053   */\n      iszero\n      tag_357\n      jumpi\n        /* \"#utility.yul\":20028:20037   */\n      dup3\n        /* \"#utility.yul\":20023:20026   */\n      dup8\n        /* \"#utility.yul\":20019:20038   */\n      add\n        /* \"#utility.yul\":20013:20039   */\n      mload\n        /* \"#utility.yul\":20004:20039   */\n      swap1\n      pop\n        /* \"#utility.yul\":19976:20053   */\n    tag_357:\n        /* \"#utility.yul\":20079:20146   */\n      tag_358\n        /* \"#utility.yul\":20139:20145   */\n      dup6\n        /* \"#utility.yul\":20132:20137   */\n      dup3\n        /* \"#utility.yul\":20079:20146   */\n      tag_153\n      jump\t// in\n    tag_358:\n        /* \"#utility.yul\":20073:20077   */\n      dup7\n        /* \"#utility.yul\":20066:20147   */\n      sstore\n        /* \"#utility.yul\":19935:20157   */\n      pop\n        /* \"#utility.yul\":19270:20157   */\n      jump(tag_355)\n        /* \"#utility.yul\":19300:19918   */\n    tag_356:\n        /* \"#utility.yul\":19352:19356   */\n      0x1f\n        /* \"#utility.yul\":19348:19357   */\n      not\n        /* \"#utility.yul\":19340:19346   */\n      dup5\n        /* \"#utility.yul\":19336:19358   */\n      and\n        /* \"#utility.yul\":19386:19423   */\n      tag_359\n        /* \"#utility.yul\":19418:19422   */\n      dup7\n        /* \"#utility.yul\":19386:19423   */\n      tag_139\n      jump\t// in\n    tag_359:\n        /* \"#utility.yul\":19445:19446   */\n      0x00\n        /* \"#utility.yul\":19459:19667   */\n    tag_360:\n        /* \"#utility.yul\":19473:19480   */\n      dup3\n        /* \"#utility.yul\":19470:19471   */\n      dup2\n        /* \"#utility.yul\":19467:19481   */\n      lt\n        /* \"#utility.yul\":19459:19667   */\n      iszero\n      tag_362\n      jumpi\n        /* \"#utility.yul\":19552:19561   */\n      dup5\n        /* \"#utility.yul\":19547:19550   */\n      dup10\n        /* \"#utility.yul\":19543:19562   */\n      add\n        /* \"#utility.yul\":19537:19563   */\n      mload\n        /* \"#utility.yul\":19529:19535   */\n      dup3\n        /* \"#utility.yul\":19522:19564   */\n      sstore\n        /* \"#utility.yul\":19603:19604   */\n      0x01\n        /* \"#utility.yul\":19595:19601   */\n      dup3\n        /* \"#utility.yul\":19591:19605   */\n      add\n        /* \"#utility.yul\":19581:19605   */\n      swap2\n      pop\n        /* \"#utility.yul\":19650:19652   */\n      0x20\n        /* \"#utility.yul\":19639:19648   */\n      dup6\n        /* \"#utility.yul\":19635:19653   */\n      add\n        /* \"#utility.yul\":19622:19653   */\n      swap5\n      pop\n        /* \"#utility.yul\":19496:19500   */\n      0x20\n        /* \"#utility.yul\":19493:19494   */\n      dup2\n        /* \"#utility.yul\":19489:19501   */\n      add\n        /* \"#utility.yul\":19484:19501   */\n      swap1\n      pop\n        /* \"#utility.yul\":19459:19667   */\n      jump(tag_360)\n    tag_362:\n        /* \"#utility.yul\":19695:19701   */\n      dup7\n        /* \"#utility.yul\":19686:19693   */\n      dup4\n        /* \"#utility.yul\":19683:19702   */\n      lt\n        /* \"#utility.yul\":19680:19859   */\n      iszero\n      tag_363\n      jumpi\n        /* \"#utility.yul\":19753:19762   */\n      dup5\n        /* \"#utility.yul\":19748:19751   */\n      dup10\n        /* \"#utility.yul\":19744:19763   */\n      add\n        /* \"#utility.yul\":19738:19764   */\n      mload\n        /* \"#utility.yul\":19796:19844   */\n      tag_364\n        /* \"#utility.yul\":19838:19842   */\n      0x1f\n        /* \"#utility.yul\":19830:19836   */\n      dup10\n        /* \"#utility.yul\":19826:19843   */\n      and\n        /* \"#utility.yul\":19815:19824   */\n      dup3\n        /* \"#utility.yul\":19796:19844   */\n      tag_152\n      jump\t// in\n    tag_364:\n        /* \"#utility.yul\":19788:19794   */\n      dup4\n        /* \"#utility.yul\":19781:19845   */\n      sstore\n        /* \"#utility.yul\":19703:19859   */\n      pop\n        /* \"#utility.yul\":19680:19859   */\n    tag_363:\n        /* \"#utility.yul\":19905:19906   */\n      0x01\n        /* \"#utility.yul\":19901:19902   */\n      0x02\n        /* \"#utility.yul\":19893:19899   */\n      dup9\n        /* \"#utility.yul\":19889:19903   */\n      mul\n        /* \"#utility.yul\":19885:19907   */\n      add\n        /* \"#utility.yul\":19879:19883   */\n      dup9\n        /* \"#utility.yul\":19872:19908   */\n      sstore\n        /* \"#utility.yul\":19307:19918   */\n      pop\n      pop\n      pop\n        /* \"#utility.yul\":19270:20157   */\n    tag_355:\n      pop\n        /* \"#utility.yul\":18860:20163   */\n      pop\n      pop\n      pop\n        /* \"#utility.yul\":18768:20163   */\n      pop\n      pop\n      jump\t// out\n        /* \"#utility.yul\":20169:20349   */\n    tag_55:\n        /* \"#utility.yul\":20217:20294   */\n      0x4e487b7100000000000000000000000000000000000000000000000000000000\n        /* \"#utility.yul\":20214:20215   */\n      0x00\n        /* \"#utility.yul\":20207:20295   */\n      mstore\n        /* \"#utility.yul\":20314:20318   */\n      0x32\n        /* \"#utility.yul\":20311:20312   */\n      0x04\n        /* \"#utility.yul\":20304:20319   */\n      mstore\n        /* \"#utility.yul\":20338:20342   */\n      0x24\n        /* \"#utility.yul\":20335:20336   */\n      0x00\n        /* \"#utility.yul\":20328:20343   */\n      revert\n        /* \"#utility.yul\":20379:21253   */\n    tag_154:\n        /* \"#utility.yul\":20482:20485   */\n      0x00\n        /* \"#utility.yul\":20519:20524   */\n      dup2\n        /* \"#utility.yul\":20513:20525   */\n      sload\n        /* \"#utility.yul\":20548:20584   */\n      tag_367\n        /* \"#utility.yul\":20574:20583   */\n      dup2\n        /* \"#utility.yul\":20548:20584   */\n      tag_65\n      jump\t// in\n    tag_367:\n        /* \"#utility.yul\":20600:20689   */\n      tag_368\n        /* \"#utility.yul\":20682:20688   */\n      dup2\n        /* \"#utility.yul\":20677:20680   */\n      dup7\n        /* \"#utility.yul\":20600:20689   */\n      tag_135\n      jump\t// in\n    tag_368:\n        /* \"#utility.yul\":20593:20689   */\n      swap5\n      pop\n        /* \"#utility.yul\":20720:20721   */\n      0x01\n        /* \"#utility.yul\":20709:20718   */\n      dup3\n        /* \"#utility.yul\":20705:20722   */\n      and\n        /* \"#utility.yul\":20736:20737   */\n      0x00\n        /* \"#utility.yul\":20731:20897   */\n      dup2\n      eq\n      tag_370\n      jumpi\n        /* \"#utility.yul\":20911:20912   */\n      0x01\n        /* \"#utility.yul\":20906:21247   */\n      dup2\n      eq\n      tag_371\n      jumpi\n        /* \"#utility.yul\":20698:21247   */\n      jump(tag_369)\n        /* \"#utility.yul\":20731:20897   */\n    tag_370:\n        /* \"#utility.yul\":20815:20819   */\n      0xff\n        /* \"#utility.yul\":20811:20820   */\n      not\n        /* \"#utility.yul\":20800:20809   */\n      dup4\n        /* \"#utility.yul\":20796:20821   */\n      and\n        /* \"#utility.yul\":20791:20794   */\n      dup7\n        /* \"#utility.yul\":20784:20822   */\n      mstore\n        /* \"#utility.yul\":20877:20883   */\n      dup2\n        /* \"#utility.yul\":20870:20884   */\n      iszero\n        /* \"#utility.yul\":20863:20885   */\n      iszero\n        /* \"#utility.yul\":20855:20861   */\n      dup3\n        /* \"#utility.yul\":20851:20886   */\n      mul\n        /* \"#utility.yul\":20846:20849   */\n      dup7\n        /* \"#utility.yul\":20842:20887   */\n      add\n        /* \"#utility.yul\":20835:20887   */\n      swap4\n      pop\n        /* \"#utility.yul\":20731:20897   */\n      jump(tag_369)\n        /* \"#utility.yul\":20906:21247   */\n    tag_371:\n        /* \"#utility.yul\":20973:21011   */\n      tag_372\n        /* \"#utility.yul\":21005:21010   */\n      dup6\n        /* \"#utility.yul\":20973:21011   */\n      tag_139\n      jump\t// in\n    tag_372:\n        /* \"#utility.yul\":21033:21034   */\n      0x00\n        /* \"#utility.yul\":21047:21201   */\n    tag_373:\n        /* \"#utility.yul\":21061:21067   */\n      dup4\n        /* \"#utility.yul\":21058:21059   */\n      dup2\n        /* \"#utility.yul\":21055:21068   */\n      lt\n        /* \"#utility.yul\":21047:21201   */\n      iszero\n      tag_375\n      jumpi\n        /* \"#utility.yul\":21135:21142   */\n      dup2\n        /* \"#utility.yul\":21129:21143   */\n      sload\n        /* \"#utility.yul\":21125:21126   */\n      dup2\n        /* \"#utility.yul\":21120:21123   */\n      dup10\n        /* \"#utility.yul\":21116:21127   */\n      add\n        /* \"#utility.yul\":21109:21144   */\n      mstore\n        /* \"#utility.yul\":21185:21186   */\n      0x01\n        /* \"#utility.yul\":21176:21183   */\n      dup3\n        /* \"#utility.yul\":21172:21187   */\n      add\n        /* \"#utility.yul\":21161:21187   */\n      swap2\n      pop\n        /* \"#utility.yul\":21083:21087   */\n      0x20\n        /* \"#utility.yul\":21080:21081   */\n      dup2\n        /* \"#utility.yul\":21076:21088   */\n      add\n        /* \"#utility.yul\":21071:21088   */\n      swap1\n      pop\n        /* \"#utility.yul\":21047:21201   */\n      jump(tag_373)\n    tag_375:\n        /* \"#utility.yul\":21230:21236   */\n      dup4\n        /* \"#utility.yul\":21225:21228   */\n      dup9\n        /* \"#utility.yul\":21221:21237   */\n      add\n        /* \"#utility.yul\":21214:21237   */\n      swap6\n      pop\n        /* \"#utility.yul\":20913:21247   */\n      pop\n      pop\n        /* \"#utility.yul\":20698:21247   */\n    tag_369:\n      pop\n        /* \"#utility.yul\":20486:21253   */\n      pop\n      pop\n        /* \"#utility.yul\":20379:21253   */\n      swap3\n      swap2\n      pop\n      pop\n      jump\t// out\n        /* \"#utility.yul\":21259:21528   */\n    tag_58:\n        /* \"#utility.yul\":21388:21391   */\n      0x00\n        /* \"#utility.yul\":21410:21502   */\n      tag_377\n        /* \"#utility.yul\":21498:21501   */\n      dup3\n        /* \"#utility.yul\":21489:21495   */\n      dup5\n        /* \"#utility.yul\":21410:21502   */\n      tag_154\n      jump\t// in\n    tag_377:\n        /* \"#utility.yul\":21403:21502   */\n      swap2\n      pop\n        /* \"#utility.yul\":21519:21522   */\n      dup2\n        /* \"#utility.yul\":21512:21522   */\n      swap1\n      pop\n        /* \"#utility.yul\":21259:21528   */\n      swap3\n      swap2\n      pop\n      pop\n      jump\t// out\n\n    auxdata: 0xa26469706673582212209fa3fbdf8c95989759dcedba2dfd3109426ee60f9c515a6f15997683757f7a2964736f6c634300081a0033\n}\n",
				"bytecode": {
					"linkReferences": {},
					"object": "6080604052348015600e575f80fd5b506110a78061001c5f395ff3fe608060405234801561000f575f80fd5b5060043610610055575f3560e01c806324108475146100595780637e3d71c31461007557806381a60c0d146100915780639207891d146100c2578063ac2f0074146100e0575b5f80fd5b610073600480360381019061006e919061071d565b610111565b005b61008f600480360381019061008a9190610859565b6101b8565b005b6100ab60048036038101906100a691906108cf565b61022b565b6040516100b9929190610acc565b60405180910390f35b6100ca610414565b6040516100d79190610b10565b60405180910390f35b6100fa60048036038101906100f591906108cf565b61041a565b604051610108929190610b8b565b60405180910390f35b5f808381526020019081526020015f206003015f9054906101000a900460ff16610170576040517f08c379a000000000000000000000000000000000000000000000000000000000815260040161016790610c03565b60405180910390fd5b5f808381526020019081526020015f20600201816040516101919190610c5b565b90815260200160405180910390205f8154809291906101af90610c9e565b91905055505050565b5f805f60015f8154809291906101cd90610c9e565b9190505581526020019081526020015f20905082815f0190816101f09190610edf565b50818160010190805190602001906102099291906104cb565b506001816003015f6101000a81548160ff021916908315150217905550505050565b6060805f805f8581526020019081526020015f206001018054905090505f8167ffffffffffffffff811115610263576102626105f9565b5b6040519080825280602002602001820160405280156102915781602001602082028036833780820191505090505b5090505f5b82811015610326575f808781526020019081526020015f206002015f808881526020019081526020015f2060010182815481106102d6576102d5610fae565b5b905f5260205f20016040516102eb919061105b565b90815260200160405180910390205482828151811061030d5761030c610fae565b5b6020026020010181815250508080600101915050610296565b505f808681526020019081526020015f206001018181805480602002602001604051908101604052809291908181526020015f905b82821015610403578382905f5260205f2001805461037890610d12565b80601f01602080910402602001604051908101604052809291908181526020018280546103a490610d12565b80156103ef5780601f106103c6576101008083540402835291602001916103ef565b820191905f5260205f20905b8154815290600101906020018083116103d257829003601f168201915b50505050508152602001906001019061035b565b505050509150935093505050915091565b60015481565b5f602052805f5260405f205f91509050805f01805461043890610d12565b80601f016020809104026020016040519081016040528092919081815260200182805461046490610d12565b80156104af5780601f10610486576101008083540402835291602001916104af565b820191905f5260205f20905b81548152906001019060200180831161049257829003601f168201915b505050505090806003015f9054906101000a900460ff16905082565b828054828255905f5260205f20908101928215610511579160200282015b828111156105105782518290816105009190610edf565b50916020019190600101906104e9565b5b50905061051e9190610522565b5090565b5b80821115610541575f81816105389190610545565b50600101610523565b5090565b50805461055190610d12565b5f825580601f10610562575061057f565b601f0160209004905f5260205f209081019061057e9190610582565b5b50565b5b80821115610599575f815f905550600101610583565b5090565b5f604051905090565b5f80fd5b5f80fd5b5f819050919050565b6105c0816105ae565b81146105ca575f80fd5b50565b5f813590506105db816105b7565b92915050565b5f80fd5b5f80fd5b5f601f19601f8301169050919050565b7f4e487b71000000000000000000000000000000000000000000000000000000005f52604160045260245ffd5b61062f826105e9565b810181811067ffffffffffffffff8211171561064e5761064d6105f9565b5b80604052505050565b5f61066061059d565b905061066c8282610626565b919050565b5f67ffffffffffffffff82111561068b5761068a6105f9565b5b610694826105e9565b9050602081019050919050565b828183375f83830152505050565b5f6106c16106bc84610671565b610657565b9050828152602081018484840111156106dd576106dc6105e5565b5b6106e88482856106a1565b509392505050565b5f82601f830112610704576107036105e1565b5b81356107148482602086016106af565b91505092915050565b5f8060408385031215610733576107326105a6565b5b5f610740858286016105cd565b925050602083013567ffffffffffffffff811115610761576107606105aa565b5b61076d858286016106f0565b9150509250929050565b5f67ffffffffffffffff821115610791576107906105f9565b5b602082029050602081019050919050565b5f80fd5b5f6107b86107b384610777565b610657565b905080838252602082019050602084028301858111156107db576107da6107a2565b5b835b8181101561082257803567ffffffffffffffff811115610800576107ff6105e1565b5b80860161080d89826106f0565b855260208501945050506020810190506107dd565b5050509392505050565b5f82601f8301126108405761083f6105e1565b5b81356108508482602086016107a6565b91505092915050565b5f806040838503121561086f5761086e6105a6565b5b5f83013567ffffffffffffffff81111561088c5761088b6105aa565b5b610898858286016106f0565b925050602083013567ffffffffffffffff8111156108b9576108b86105aa565b5b6108c58582860161082c565b9150509250929050565b5f602082840312156108e4576108e36105a6565b5b5f6108f1848285016105cd565b91505092915050565b5f81519050919050565b5f82825260208201905092915050565b5f819050602082019050919050565b5f81519050919050565b5f82825260208201905092915050565b8281835e5f83830152505050565b5f61095582610923565b61095f818561092d565b935061096f81856020860161093d565b610978816105e9565b840191505092915050565b5f61098e838361094b565b905092915050565b5f602082019050919050565b5f6109ac826108fa565b6109b68185610904565b9350836020820285016109c885610914565b805f5b85811015610a0357848403895281516109e48582610983565b94506109ef83610996565b925060208a019950506001810190506109cb565b50829750879550505050505092915050565b5f81519050919050565b5f82825260208201905092915050565b5f819050602082019050919050565b610a47816105ae565b82525050565b5f610a588383610a3e565b60208301905092915050565b5f602082019050919050565b5f610a7a82610a15565b610a848185610a1f565b9350610a8f83610a2f565b805f5b83811015610abf578151610aa68882610a4d565b9750610ab183610a64565b925050600181019050610a92565b5085935050505092915050565b5f6040820190508181035f830152610ae481856109a2565b90508181036020830152610af88184610a70565b90509392505050565b610b0a816105ae565b82525050565b5f602082019050610b235f830184610b01565b92915050565b5f82825260208201905092915050565b5f610b4382610923565b610b4d8185610b29565b9350610b5d81856020860161093d565b610b66816105e9565b840191505092915050565b5f8115159050919050565b610b8581610b71565b82525050565b5f6040820190508181035f830152610ba38185610b39565b9050610bb26020830184610b7c565b9392505050565b7f506f6c6c206973206e6f742061637469766500000000000000000000000000005f82015250565b5f610bed601283610b29565b9150610bf882610bb9565b602082019050919050565b5f6020820190508181035f830152610c1a81610be1565b9050919050565b5f81905092915050565b5f610c3582610923565b610c3f8185610c21565b9350610c4f81856020860161093d565b80840191505092915050565b5f610c668284610c2b565b915081905092915050565b7f4e487b71000000000000000000000000000000000000000000000000000000005f52601160045260245ffd5b5f610ca8826105ae565b91507fffffffffffffffffffffffffffffffffffffffffffffffffffffffffffffffff8203610cda57610cd9610c71565b5b600182019050919050565b7f4e487b71000000000000000000000000000000000000000000000000000000005f52602260045260245ffd5b5f6002820490506001821680610d2957607f821691505b602082108103610d3c57610d3b610ce5565b5b50919050565b5f819050815f5260205f209050919050565b5f6020601f8301049050919050565b5f82821b905092915050565b5f60088302610d9e7fffffffffffffffffffffffffffffffffffffffffffffffffffffffffffffffff82610d63565b610da88683610d63565b95508019841693508086168417925050509392505050565b5f819050919050565b5f610de3610dde610dd9846105ae565b610dc0565b6105ae565b9050919050565b5f819050919050565b610dfc83610dc9565b610e10610e0882610dea565b848454610d6f565b825550505050565b5f90565b610e24610e18565b610e2f818484610df3565b505050565b5b81811015610e5257610e475f82610e1c565b600181019050610e35565b5050565b601f821115610e9757610e6881610d42565b610e7184610d54565b81016020851015610e80578190505b610e94610e8c85610d54565b830182610e34565b50505b505050565b5f82821c905092915050565b5f610eb75f1984600802610e9c565b1980831691505092915050565b5f610ecf8383610ea8565b9150826002028217905092915050565b610ee882610923565b67ffffffffffffffff811115610f0157610f006105f9565b5b610f0b8254610d12565b610f16828285610e56565b5f60209050601f831160018114610f47575f8415610f35578287015190505b610f3f8582610ec4565b865550610fa6565b601f198416610f5586610d42565b5f5b82811015610f7c57848901518255600182019150602085019450602081019050610f57565b86831015610f995784890151610f95601f891682610ea8565b8355505b6001600288020188555050505b505050505050565b7f4e487b71000000000000000000000000000000000000000000000000000000005f52603260045260245ffd5b5f8154610fe781610d12565b610ff18186610c21565b9450600182165f811461100b576001811461102057611052565b60ff1983168652811515820286019350611052565b61102985610d42565b5f5b8381101561104a5781548189015260018201915060208101905061102b565b838801955050505b50505092915050565b5f6110668284610fdb565b91508190509291505056fea26469706673582212209fa3fbdf8c95989759dcedba2dfd3109426ee60f9c515a6f15997683757f7a2964736f6c634300081a0033",
					"opcodes": "PUSH1 0x80 PUSH1 0x40 MSTORE CALLVALUE DUP1 ISZERO PUSH1 0xE JUMPI PUSH0 DUP1 REVERT JUMPDEST POP PUSH2 0x10A7 DUP1 PUSH2 0x1C PUSH0 CODECOPY PUSH0 RETURN INVALID PUSH1 0x80 PUSH1 0x40 MSTORE CALLVALUE DUP1 ISZERO PUSH2 0xF JUMPI PUSH0 DUP1 REVERT JUMPDEST POP PUSH1 0x4 CALLDATASIZE LT PUSH2 0x55 JUMPI PUSH0 CALLDATALOAD PUSH1 0xE0 SHR DUP1 PUSH4 0x24108475 EQ PUSH2 0x59 JUMPI DUP1 PUSH4 0x7E3D71C3 EQ PUSH2 0x75 JUMPI DUP1 PUSH4 0x81A60C0D EQ PUSH2 0x91 JUMPI DUP1 PUSH4 0x9207891D EQ PUSH2 0xC2 JUMPI DUP1 PUSH4 0xAC2F0074 EQ PUSH2 0xE0 JUMPI JUMPDEST PUSH0 DUP1 REVERT JUMPDEST PUSH2 0x73 PUSH1 0x4 DUP1 CALLDATASIZE SUB DUP2 ADD SWAP1 PUSH2 0x6E SWAP2 SWAP1 PUSH2 0x71D JUMP JUMPDEST PUSH2 0x111 JUMP JUMPDEST STOP JUMPDEST PUSH2 0x8F PUSH1 0x4 DUP1 CALLDATASIZE SUB DUP2 ADD SWAP1 PUSH2 0x8A SWAP2 SWAP1 PUSH2 0x859 JUMP JUMPDEST PUSH2 0x1B8 JUMP JUMPDEST STOP JUMPDEST PUSH2 0xAB PUSH1 0x4 DUP1 CALLDATASIZE SUB DUP2 ADD SWAP1 PUSH2 0xA6 SWAP2 SWAP1 PUSH2 0x8CF JUMP JUMPDEST PUSH2 0x22B JUMP JUMPDEST PUSH1 0x40 MLOAD PUSH2 0xB9 SWAP3 SWAP2 SWAP1 PUSH2 0xACC JUMP JUMPDEST PUSH1 0x40 MLOAD DUP1 SWAP2 SUB SWAP1 RETURN JUMPDEST PUSH2 0xCA PUSH2 0x414 JUMP JUMPDEST PUSH1 0x40 MLOAD PUSH2 0xD7 SWAP2 SWAP1 PUSH2 0xB10 JUMP JUMPDEST PUSH1 0x40 MLOAD DUP1 SWAP2 SUB SWAP1 RETURN JUMPDEST PUSH2 0xFA PUSH1 0x4 DUP1 CALLDATASIZE SUB DUP2 ADD SWAP1 PUSH2 0xF5 SWAP2 SWAP1 PUSH2 0x8CF JUMP JUMPDEST PUSH2 0x41A JUMP JUMPDEST PUSH1 0x40 MLOAD PUSH2 0x108 SWAP3 SWAP2 SWAP1 PUSH2 0xB8B JUMP JUMPDEST PUSH1 0x40 MLOAD DUP1 SWAP2 SUB SWAP1 RETURN JUMPDEST PUSH0 DUP1 DUP4 DUP2 MSTORE PUSH1 0x20 ADD SWAP1 DUP2 MSTORE PUSH1 0x20 ADD PUSH0 KECCAK256 PUSH1 0x3 ADD PUSH0 SWAP1 SLOAD SWAP1 PUSH2 0x100 EXP SWAP1 DIV PUSH1 0xFF AND PUSH2 0x170 JUMPI PUSH1 0x40 MLOAD PUSH32 0x8C379A000000000000000000000000000000000000000000000000000000000 DUP2 MSTORE PUSH1 0x4 ADD PUSH2 0x167 SWAP1 PUSH2 0xC03 JUMP JUMPDEST PUSH1 0x40 MLOAD DUP1 SWAP2 SUB SWAP1 REVERT JUMPDEST PUSH0 DUP1 DUP4 DUP2 MSTORE PUSH1 0x20 ADD SWAP1 DUP2 MSTORE PUSH1 0x20 ADD PUSH0 KECCAK256 PUSH1 0x2 ADD DUP2 PUSH1 0x40 MLOAD PUSH2 0x191 SWAP2 SWAP1 PUSH2 0xC5B JUMP JUMPDEST SWAP1 DUP2 MSTORE PUSH1 0x20 ADD PUSH1 0x40 MLOAD DUP1 SWAP2 SUB SWAP1 KECCAK256 PUSH0 DUP2 SLOAD DUP1 SWAP3 SWAP2 SWAP1 PUSH2 0x1AF SWAP1 PUSH2 0xC9E JUMP JUMPDEST SWAP2 SWAP1 POP SSTORE POP POP POP JUMP JUMPDEST PUSH0 DUP1 PUSH0 PUSH1 0x1 PUSH0 DUP2 SLOAD DUP1 SWAP3 SWAP2 SWAP1 PUSH2 0x1CD SWAP1 PUSH2 0xC9E JUMP JUMPDEST SWAP2 SWAP1 POP SSTORE DUP2 MSTORE PUSH1 0x20 ADD SWAP1 DUP2 MSTORE PUSH1 0x20 ADD PUSH0 KECCAK256 SWAP1 POP DUP3 DUP2 PUSH0 ADD SWAP1 DUP2 PUSH2 0x1F0 SWAP2 SWAP1 PUSH2 0xEDF JUMP JUMPDEST POP DUP2 DUP2 PUSH1 0x1 ADD SWAP1 DUP1 MLOAD SWAP1 PUSH1 0x20 ADD SWAP1 PUSH2 0x209 SWAP3 SWAP2 SWAP1 PUSH2 0x4CB JUMP JUMPDEST POP PUSH1 0x1 DUP2 PUSH1 0x3 ADD PUSH0 PUSH2 0x100 EXP DUP2 SLOAD DUP2 PUSH1 0xFF MUL NOT AND SWAP1 DUP4 ISZERO ISZERO MUL OR SWAP1 SSTORE POP POP POP POP JUMP JUMPDEST PUSH1 0x60 DUP1 PUSH0 DUP1 PUSH0 DUP6 DUP2 MSTORE PUSH1 0x20 ADD SWAP1 DUP2 MSTORE PUSH1 0x20 ADD PUSH0 KECCAK256 PUSH1 0x1 ADD DUP1 SLOAD SWAP1 POP SWAP1 POP PUSH0 DUP2 PUSH8 0xFFFFFFFFFFFFFFFF DUP2 GT ISZERO PUSH2 0x263 JUMPI PUSH2 0x262 PUSH2 0x5F9 JUMP JUMPDEST JUMPDEST PUSH1 0x40 MLOAD SWAP1 DUP1 DUP3 MSTORE DUP1 PUSH1 0x20 MUL PUSH1 0x20 ADD DUP3 ADD PUSH1 0x40 MSTORE DUP1 ISZERO PUSH2 0x291 JUMPI DUP2 PUSH1 0x20 ADD PUSH1 0x20 DUP3 MUL DUP1 CALLDATASIZE DUP4 CALLDATACOPY DUP1 DUP3 ADD SWAP2 POP POP SWAP1 POP JUMPDEST POP SWAP1 POP PUSH0 JUMPDEST DUP3 DUP2 LT ISZERO PUSH2 0x326 JUMPI PUSH0 DUP1 DUP8 DUP2 MSTORE PUSH1 0x20 ADD SWAP1 DUP2 MSTORE PUSH1 0x20 ADD PUSH0 KECCAK256 PUSH1 0x2 ADD PUSH0 DUP1 DUP9 DUP2 MSTORE PUSH1 0x20 ADD SWAP1 DUP2 MSTORE PUSH1 0x20 ADD PUSH0 KECCAK256 PUSH1 0x1 ADD DUP3 DUP2 SLOAD DUP2 LT PUSH2 0x2D6 JUMPI PUSH2 0x2D5 PUSH2 0xFAE JUMP JUMPDEST JUMPDEST SWAP1 PUSH0 MSTORE PUSH1 0x20 PUSH0 KECCAK256 ADD PUSH1 0x40 MLOAD PUSH2 0x2EB SWAP2 SWAP1 PUSH2 0x105B JUMP JUMPDEST SWAP1 DUP2 MSTORE PUSH1 0x20 ADD PUSH1 0x40 MLOAD DUP1 SWAP2 SUB SWAP1 KECCAK256 SLOAD DUP3 DUP3 DUP2 MLOAD DUP2 LT PUSH2 0x30D JUMPI PUSH2 0x30C PUSH2 0xFAE JUMP JUMPDEST JUMPDEST PUSH1 0x20 MUL PUSH1 0x20 ADD ADD DUP2 DUP2 MSTORE POP POP DUP1 DUP1 PUSH1 0x1 ADD SWAP2 POP POP PUSH2 0x296 JUMP JUMPDEST POP PUSH0 DUP1 DUP7 DUP2 MSTORE PUSH1 0x20 ADD SWAP1 DUP2 MSTORE PUSH1 0x20 ADD PUSH0 KECCAK256 PUSH1 0x1 ADD DUP2 DUP2 DUP1 SLOAD DUP1 PUSH1 0x20 MUL PUSH1 0x20 ADD PUSH1 0x40 MLOAD SWAP1 DUP2 ADD PUSH1 0x40 MSTORE DUP1 SWAP3 SWAP2 SWAP1 DUP2 DUP2 MSTORE PUSH1 0x20 ADD PUSH0 SWAP1 JUMPDEST DUP3 DUP3 LT ISZERO PUSH2 0x403 JUMPI DUP4 DUP3 SWAP1 PUSH0 MSTORE PUSH1 0x20 PUSH0 KECCAK256 ADD DUP1 SLOAD PUSH2 0x378 SWAP1 PUSH2 0xD12 JUMP JUMPDEST DUP1 PUSH1 0x1F ADD PUSH1 0x20 DUP1 SWAP2 DIV MUL PUSH1 0x20 ADD PUSH1 0x40 MLOAD SWAP1 DUP2 ADD PUSH1 0x40 MSTORE DUP1 SWAP3 SWAP2 SWAP1 DUP2 DUP2 MSTORE PUSH1 0x20 ADD DUP3 DUP1 SLOAD PUSH2 0x3A4 SWAP1 PUSH2 0xD12 JUMP JUMPDEST DUP1 ISZERO PUSH2 0x3EF JUMPI DUP1 PUSH1 0x1F LT PUSH2 0x3C6 JUMPI PUSH2 0x100 DUP1 DUP4 SLOAD DIV MUL DUP4 MSTORE SWAP2 PUSH1 0x20 ADD SWAP2 PUSH2 0x3EF JUMP JUMPDEST DUP3 ADD SWAP2 SWAP1 PUSH0 MSTORE PUSH1 0x20 PUSH0 KECCAK256 SWAP1 JUMPDEST DUP2 SLOAD DUP2 MSTORE SWAP1 PUSH1 0x1 ADD SWAP1 PUSH1 0x20 ADD DUP1 DUP4 GT PUSH2 0x3D2 JUMPI DUP3 SWAP1 SUB PUSH1 0x1F AND DUP3 ADD SWAP2 JUMPDEST POP POP POP POP POP DUP2 MSTORE PUSH1 0x20 ADD SWAP1 PUSH1 0x1 ADD SWAP1 PUSH2 0x35B JUMP JUMPDEST POP POP POP POP SWAP2 POP SWAP4 POP SWAP4 POP POP POP SWAP2 POP SWAP2 JUMP JUMPDEST PUSH1 0x1 SLOAD DUP2 JUMP JUMPDEST PUSH0 PUSH1 0x20 MSTORE DUP1 PUSH0 MSTORE PUSH1 0x40 PUSH0 KECCAK256 PUSH0 SWAP2 POP SWAP1 POP DUP1 PUSH0 ADD DUP1 SLOAD PUSH2 0x438 SWAP1 PUSH2 0xD12 JUMP JUMPDEST DUP1 PUSH1 0x1F ADD PUSH1 0x20 DUP1 SWAP2 DIV MUL PUSH1 0x20 ADD PUSH1 0x40 MLOAD SWAP1 DUP2 ADD PUSH1 0x40 MSTORE DUP1 SWAP3 SWAP2 SWAP1 DUP2 DUP2 MSTORE PUSH1 0x20 ADD DUP3 DUP1 SLOAD PUSH2 0x464 SWAP1 PUSH2 0xD12 JUMP JUMPDEST DUP1 ISZERO PUSH2 0x4AF JUMPI DUP1 PUSH1 0x1F LT PUSH2 0x486 JUMPI PUSH2 0x100 DUP1 DUP4 SLOAD DIV MUL DUP4 MSTORE SWAP2 PUSH1 0x20 ADD SWAP2 PUSH2 0x4AF JUMP JUMPDEST DUP3 ADD SWAP2 SWAP1 PUSH0 MSTORE PUSH1 0x20 PUSH0 KECCAK256 SWAP1 JUMPDEST DUP2 SLOAD DUP2 MSTORE SWAP1 PUSH1 0x1 ADD SWAP1 PUSH1 0x20 ADD DUP1 DUP4 GT PUSH2 0x492 JUMPI DUP3 SWAP1 SUB PUSH1 0x1F AND DUP3 ADD SWAP2 JUMPDEST POP POP POP POP POP SWAP1 DUP1 PUSH1 0x3 ADD PUSH0 SWAP1 SLOAD SWAP1 PUSH2 0x100 EXP SWAP1 DIV PUSH1 0xFF AND SWAP1 POP DUP3 JUMP JUMPDEST DUP3 DUP1 SLOAD DUP3 DUP3 SSTORE SWAP1 PUSH0 MSTORE PUSH1 0x20 PUSH0 KECCAK256 SWAP1 DUP2 ADD SWAP3 DUP3 ISZERO PUSH2 0x511 JUMPI SWAP2 PUSH1 0x20 MUL DUP3 ADD JUMPDEST DUP3 DUP2 GT ISZERO PUSH2 0x510 JUMPI DUP3 MLOAD DUP3 SWAP1 DUP2 PUSH2 0x500 SWAP2 SWAP1 PUSH2 0xEDF JUMP JUMPDEST POP SWAP2 PUSH1 0x20 ADD SWAP2 SWAP1 PUSH1 0x1 ADD SWAP1 PUSH2 0x4E9 JUMP JUMPDEST JUMPDEST POP SWAP1 POP PUSH2 0x51E SWAP2 SWAP1 PUSH2 0x522 JUMP JUMPDEST POP SWAP1 JUMP JUMPDEST JUMPDEST DUP1 DUP3 GT ISZERO PUSH2 0x541 JUMPI PUSH0 DUP2 DUP2 PUSH2 0x538 SWAP2 SWAP1 PUSH2 0x545 JUMP JUMPDEST POP PUSH1 0x1 ADD PUSH2 0x523 JUMP JUMPDEST POP SWAP1 JUMP JUMPDEST POP DUP1 SLOAD PUSH2 0x551 SWAP1 PUSH2 0xD12 JUMP JUMPDEST PUSH0 DUP3 SSTORE DUP1 PUSH1 0x1F LT PUSH2 0x562 JUMPI POP PUSH2 0x57F JUMP JUMPDEST PUSH1 0x1F ADD PUSH1 0x20 SWAP1 DIV SWAP1 PUSH0 MSTORE PUSH1 0x20 PUSH0 KECCAK256 SWAP1 DUP2 ADD SWAP1 PUSH2 0x57E SWAP2 SWAP1 PUSH2 0x582 JUMP JUMPDEST JUMPDEST POP JUMP JUMPDEST JUMPDEST DUP1 DUP3 GT ISZERO PUSH2 0x599 JUMPI PUSH0 DUP2 PUSH0 SWAP1 SSTORE POP PUSH1 0x1 ADD PUSH2 0x583 JUMP JUMPDEST POP SWAP1 JUMP JUMPDEST PUSH0 PUSH1 0x40 MLOAD SWAP1 POP SWAP1 JUMP JUMPDEST PUSH0 DUP1 REVERT JUMPDEST PUSH0 DUP1 REVERT JUMPDEST PUSH0 DUP2 SWAP1 POP SWAP2 SWAP1 POP JUMP JUMPDEST PUSH2 0x5C0 DUP2 PUSH2 0x5AE JUMP JUMPDEST DUP2 EQ PUSH2 0x5CA JUMPI PUSH0 DUP1 REVERT JUMPDEST POP JUMP JUMPDEST PUSH0 DUP2 CALLDATALOAD SWAP1 POP PUSH2 0x5DB DUP2 PUSH2 0x5B7 JUMP JUMPDEST SWAP3 SWAP2 POP POP JUMP JUMPDEST PUSH0 DUP1 REVERT JUMPDEST PUSH0 DUP1 REVERT JUMPDEST PUSH0 PUSH1 0x1F NOT PUSH1 0x1F DUP4 ADD AND SWAP1 POP SWAP2 SWAP1 POP JUMP JUMPDEST PUSH32 0x4E487B7100000000000000000000000000000000000000000000000000000000 PUSH0 MSTORE PUSH1 0x41 PUSH1 0x4 MSTORE PUSH1 0x24 PUSH0 REVERT JUMPDEST PUSH2 0x62F DUP3 PUSH2 0x5E9 JUMP JUMPDEST DUP2 ADD DUP2 DUP2 LT PUSH8 0xFFFFFFFFFFFFFFFF DUP3 GT OR ISZERO PUSH2 0x64E JUMPI PUSH2 0x64D PUSH2 0x5F9 JUMP JUMPDEST JUMPDEST DUP1 PUSH1 0x40 MSTORE POP POP POP JUMP JUMPDEST PUSH0 PUSH2 0x660 PUSH2 0x59D JUMP JUMPDEST SWAP1 POP PUSH2 0x66C DUP3 DUP3 PUSH2 0x626 JUMP JUMPDEST SWAP2 SWAP1 POP JUMP JUMPDEST PUSH0 PUSH8 0xFFFFFFFFFFFFFFFF DUP3 GT ISZERO PUSH2 0x68B JUMPI PUSH2 0x68A PUSH2 0x5F9 JUMP JUMPDEST JUMPDEST PUSH2 0x694 DUP3 PUSH2 0x5E9 JUMP JUMPDEST SWAP1 POP PUSH1 0x20 DUP2 ADD SWAP1 POP SWAP2 SWAP1 POP JUMP JUMPDEST DUP3 DUP2 DUP4 CALLDATACOPY PUSH0 DUP4 DUP4 ADD MSTORE POP POP POP JUMP JUMPDEST PUSH0 PUSH2 0x6C1 PUSH2 0x6BC DUP5 PUSH2 0x671 JUMP JUMPDEST PUSH2 0x657 JUMP JUMPDEST SWAP1 POP DUP3 DUP2 MSTORE PUSH1 0x20 DUP2 ADD DUP5 DUP5 DUP5 ADD GT ISZERO PUSH2 0x6DD JUMPI PUSH2 0x6DC PUSH2 0x5E5 JUMP JUMPDEST JUMPDEST PUSH2 0x6E8 DUP5 DUP3 DUP6 PUSH2 0x6A1 JUMP JUMPDEST POP SWAP4 SWAP3 POP POP POP JUMP JUMPDEST PUSH0 DUP3 PUSH1 0x1F DUP4 ADD SLT PUSH2 0x704 JUMPI PUSH2 0x703 PUSH2 0x5E1 JUMP JUMPDEST JUMPDEST DUP2 CALLDATALOAD PUSH2 0x714 DUP5 DUP3 PUSH1 0x20 DUP7 ADD PUSH2 0x6AF JUMP JUMPDEST SWAP2 POP POP SWAP3 SWAP2 POP POP JUMP JUMPDEST PUSH0 DUP1 PUSH1 0x40 DUP4 DUP6 SUB SLT ISZERO PUSH2 0x733 JUMPI PUSH2 0x732 PUSH2 0x5A6 JUMP JUMPDEST JUMPDEST PUSH0 PUSH2 0x740 DUP6 DUP3 DUP7 ADD PUSH2 0x5CD JUMP JUMPDEST SWAP3 POP POP PUSH1 0x20 DUP4 ADD CALLDATALOAD PUSH8 0xFFFFFFFFFFFFFFFF DUP2 GT ISZERO PUSH2 0x761 JUMPI PUSH2 0x760 PUSH2 0x5AA JUMP JUMPDEST JUMPDEST PUSH2 0x76D DUP6 DUP3 DUP7 ADD PUSH2 0x6F0 JUMP JUMPDEST SWAP2 POP POP SWAP3 POP SWAP3 SWAP1 POP JUMP JUMPDEST PUSH0 PUSH8 0xFFFFFFFFFFFFFFFF DUP3 GT ISZERO PUSH2 0x791 JUMPI PUSH2 0x790 PUSH2 0x5F9 JUMP JUMPDEST JUMPDEST PUSH1 0x20 DUP3 MUL SWAP1 POP PUSH1 0x20 DUP2 ADD SWAP1 POP SWAP2 SWAP1 POP JUMP JUMPDEST PUSH0 DUP1 REVERT JUMPDEST PUSH0 PUSH2 0x7B8 PUSH2 0x7B3 DUP5 PUSH2 0x777 JUMP JUMPDEST PUSH2 0x657 JUMP JUMPDEST SWAP1 POP DUP1 DUP4 DUP3 MSTORE PUSH1 0x20 DUP3 ADD SWAP1 POP PUSH1 0x20 DUP5 MUL DUP4 ADD DUP6 DUP2 GT ISZERO PUSH2 0x7DB JUMPI PUSH2 0x7DA PUSH2 0x7A2 JUMP JUMPDEST JUMPDEST DUP4 JUMPDEST DUP2 DUP2 LT ISZERO PUSH2 0x822 JUMPI DUP1 CALLDATALOAD PUSH8 0xFFFFFFFFFFFFFFFF DUP2 GT ISZERO PUSH2 0x800 JUMPI PUSH2 0x7FF PUSH2 0x5E1 JUMP JUMPDEST JUMPDEST DUP1 DUP7 ADD PUSH2 0x80D DUP10 DUP3 PUSH2 0x6F0 JUMP JUMPDEST DUP6 MSTORE PUSH1 0x20 DUP6 ADD SWAP5 POP POP POP PUSH1 0x20 DUP2 ADD SWAP1 POP PUSH2 0x7DD JUMP JUMPDEST POP POP POP SWAP4 SWAP3 POP POP POP JUMP JUMPDEST PUSH0 DUP3 PUSH1 0x1F DUP4 ADD SLT PUSH2 0x840 JUMPI PUSH2 0x83F PUSH2 0x5E1 JUMP JUMPDEST JUMPDEST DUP2 CALLDATALOAD PUSH2 0x850 DUP5 DUP3 PUSH1 0x20 DUP7 ADD PUSH2 0x7A6 JUMP JUMPDEST SWAP2 POP POP SWAP3 SWAP2 POP POP JUMP JUMPDEST PUSH0 DUP1 PUSH1 0x40 DUP4 DUP6 SUB SLT ISZERO PUSH2 0x86F JUMPI PUSH2 0x86E PUSH2 0x5A6 JUMP JUMPDEST JUMPDEST PUSH0 DUP4 ADD CALLDATALOAD PUSH8 0xFFFFFFFFFFFFFFFF DUP2 GT ISZERO PUSH2 0x88C JUMPI PUSH2 0x88B PUSH2 0x5AA JUMP JUMPDEST JUMPDEST PUSH2 0x898 DUP6 DUP3 DUP7 ADD PUSH2 0x6F0 JUMP JUMPDEST SWAP3 POP POP PUSH1 0x20 DUP4 ADD CALLDATALOAD PUSH8 0xFFFFFFFFFFFFFFFF DUP2 GT ISZERO PUSH2 0x8B9 JUMPI PUSH2 0x8B8 PUSH2 0x5AA JUMP JUMPDEST JUMPDEST PUSH2 0x8C5 DUP6 DUP3 DUP7 ADD PUSH2 0x82C JUMP JUMPDEST SWAP2 POP POP SWAP3 POP SWAP3 SWAP1 POP JUMP JUMPDEST PUSH0 PUSH1 0x20 DUP3 DUP5 SUB SLT ISZERO PUSH2 0x8E4 JUMPI PUSH2 0x8E3 PUSH2 0x5A6 JUMP JUMPDEST JUMPDEST PUSH0 PUSH2 0x8F1 DUP5 DUP3 DUP6 ADD PUSH2 0x5CD JUMP JUMPDEST SWAP2 POP POP SWAP3 SWAP2 POP POP JUMP JUMPDEST PUSH0 DUP2 MLOAD SWAP1 POP SWAP2 SWAP1 POP JUMP JUMPDEST PUSH0 DUP3 DUP3 MSTORE PUSH1 0x20 DUP3 ADD SWAP1 POP SWAP3 SWAP2 POP POP JUMP JUMPDEST PUSH0 DUP2 SWAP1 POP PUSH1 0x20 DUP3 ADD SWAP1 POP SWAP2 SWAP1 POP JUMP JUMPDEST PUSH0 DUP2 MLOAD SWAP1 POP SWAP2 SWAP1 POP JUMP JUMPDEST PUSH0 DUP3 DUP3 MSTORE PUSH1 0x20 DUP3 ADD SWAP1 POP SWAP3 SWAP2 POP POP JUMP JUMPDEST DUP3 DUP2 DUP4 MCOPY PUSH0 DUP4 DUP4 ADD MSTORE POP POP POP JUMP JUMPDEST PUSH0 PUSH2 0x955 DUP3 PUSH2 0x923 JUMP JUMPDEST PUSH2 0x95F DUP2 DUP6 PUSH2 0x92D JUMP JUMPDEST SWAP4 POP PUSH2 0x96F DUP2 DUP6 PUSH1 0x20 DUP7 ADD PUSH2 0x93D JUMP JUMPDEST PUSH2 0x978 DUP2 PUSH2 0x5E9 JUMP JUMPDEST DUP5 ADD SWAP2 POP POP SWAP3 SWAP2 POP POP JUMP JUMPDEST PUSH0 PUSH2 0x98E DUP4 DUP4 PUSH2 0x94B JUMP JUMPDEST SWAP1 POP SWAP3 SWAP2 POP POP JUMP JUMPDEST PUSH0 PUSH1 0x20 DUP3 ADD SWAP1 POP SWAP2 SWAP1 POP JUMP JUMPDEST PUSH0 PUSH2 0x9AC DUP3 PUSH2 0x8FA JUMP JUMPDEST PUSH2 0x9B6 DUP2 DUP6 PUSH2 0x904 JUMP JUMPDEST SWAP4 POP DUP4 PUSH1 0x20 DUP3 MUL DUP6 ADD PUSH2 0x9C8 DUP6 PUSH2 0x914 JUMP JUMPDEST DUP1 PUSH0 JUMPDEST DUP6 DUP2 LT ISZERO PUSH2 0xA03 JUMPI DUP5 DUP5 SUB DUP10 MSTORE DUP2 MLOAD PUSH2 0x9E4 DUP6 DUP3 PUSH2 0x983 JUMP JUMPDEST SWAP5 POP PUSH2 0x9EF DUP4 PUSH2 0x996 JUMP JUMPDEST SWAP3 POP PUSH1 0x20 DUP11 ADD SWAP10 POP POP PUSH1 0x1 DUP2 ADD SWAP1 POP PUSH2 0x9CB JUMP JUMPDEST POP DUP3 SWAP8 POP DUP8 SWAP6 POP POP POP POP POP POP SWAP3 SWAP2 POP POP JUMP JUMPDEST PUSH0 DUP2 MLOAD SWAP1 POP SWAP2 SWAP1 POP JUMP JUMPDEST PUSH0 DUP3 DUP3 MSTORE PUSH1 0x20 DUP3 ADD SWAP1 POP SWAP3 SWAP2 POP POP JUMP JUMPDEST PUSH0 DUP2 SWAP1 POP PUSH1 0x20 DUP3 ADD SWAP1 POP SWAP2 SWAP1 POP JUMP JUMPDEST PUSH2 0xA47 DUP2 PUSH2 0x5AE JUMP JUMPDEST DUP3 MSTORE POP POP JUMP JUMPDEST PUSH0 PUSH2 0xA58 DUP4 DUP4 PUSH2 0xA3E JUMP JUMPDEST PUSH1 0x20 DUP4 ADD SWAP1 POP SWAP3 SWAP2 POP POP JUMP JUMPDEST PUSH0 PUSH1 0x20 DUP3 ADD SWAP1 POP SWAP2 SWAP1 POP JUMP JUMPDEST PUSH0 PUSH2 0xA7A DUP3 PUSH2 0xA15 JUMP JUMPDEST PUSH2 0xA84 DUP2 DUP6 PUSH2 0xA1F JUMP JUMPDEST SWAP4 POP PUSH2 0xA8F DUP4 PUSH2 0xA2F JUMP JUMPDEST DUP1 PUSH0 JUMPDEST DUP4 DUP2 LT ISZERO PUSH2 0xABF JUMPI DUP2 MLOAD PUSH2 0xAA6 DUP9 DUP3 PUSH2 0xA4D JUMP JUMPDEST SWAP8 POP PUSH2 0xAB1 DUP4 PUSH2 0xA64 JUMP JUMPDEST SWAP3 POP POP PUSH1 0x1 DUP2 ADD SWAP1 POP PUSH2 0xA92 JUMP JUMPDEST POP DUP6 SWAP4 POP POP POP POP SWAP3 SWAP2 POP POP JUMP JUMPDEST PUSH0 PUSH1 0x40 DUP3 ADD SWAP1 POP DUP2 DUP2 SUB PUSH0 DUP4 ADD MSTORE PUSH2 0xAE4 DUP2 DUP6 PUSH2 0x9A2 JUMP JUMPDEST SWAP1 POP DUP2 DUP2 SUB PUSH1 0x20 DUP4 ADD MSTORE PUSH2 0xAF8 DUP2 DUP5 PUSH2 0xA70 JUMP JUMPDEST SWAP1 POP SWAP4 SWAP3 POP POP POP JUMP JUMPDEST PUSH2 0xB0A DUP2 PUSH2 0x5AE JUMP JUMPDEST DUP3 MSTORE POP POP JUMP JUMPDEST PUSH0 PUSH1 0x20 DUP3 ADD SWAP1 POP PUSH2 0xB23 PUSH0 DUP4 ADD DUP5 PUSH2 0xB01 JUMP JUMPDEST SWAP3 SWAP2 POP POP JUMP JUMPDEST PUSH0 DUP3 DUP3 MSTORE PUSH1 0x20 DUP3 ADD SWAP1 POP SWAP3 SWAP2 POP POP JUMP JUMPDEST PUSH0 PUSH2 0xB43 DUP3 PUSH2 0x923 JUMP JUMPDEST PUSH2 0xB4D DUP2 DUP6 PUSH2 0xB29 JUMP JUMPDEST SWAP4 POP PUSH2 0xB5D DUP2 DUP6 PUSH1 0x20 DUP7 ADD PUSH2 0x93D JUMP JUMPDEST PUSH2 0xB66 DUP2 PUSH2 0x5E9 JUMP JUMPDEST DUP5 ADD SWAP2 POP POP SWAP3 SWAP2 POP POP JUMP JUMPDEST PUSH0 DUP2 ISZERO ISZERO SWAP1 POP SWAP2 SWAP1 POP JUMP JUMPDEST PUSH2 0xB85 DUP2 PUSH2 0xB71 JUMP JUMPDEST DUP3 MSTORE POP POP JUMP JUMPDEST PUSH0 PUSH1 0x40 DUP3 ADD SWAP1 POP DUP2 DUP2 SUB PUSH0 DUP4 ADD MSTORE PUSH2 0xBA3 DUP2 DUP6 PUSH2 0xB39 JUMP JUMPDEST SWAP1 POP PUSH2 0xBB2 PUSH1 0x20 DUP4 ADD DUP5 PUSH2 0xB7C JUMP JUMPDEST SWAP4 SWAP3 POP POP POP JUMP JUMPDEST PUSH32 0x506F6C6C206973206E6F74206163746976650000000000000000000000000000 PUSH0 DUP3 ADD MSTORE POP JUMP JUMPDEST PUSH0 PUSH2 0xBED PUSH1 0x12 DUP4 PUSH2 0xB29 JUMP JUMPDEST SWAP2 POP PUSH2 0xBF8 DUP3 PUSH2 0xBB9 JUMP JUMPDEST PUSH1 0x20 DUP3 ADD SWAP1 POP SWAP2 SWAP1 POP JUMP JUMPDEST PUSH0 PUSH1 0x20 DUP3 ADD SWAP1 POP DUP2 DUP2 SUB PUSH0 DUP4 ADD MSTORE PUSH2 0xC1A DUP2 PUSH2 0xBE1 JUMP JUMPDEST SWAP1 POP SWAP2 SWAP1 POP JUMP JUMPDEST PUSH0 DUP2 SWAP1 POP SWAP3 SWAP2 POP POP JUMP JUMPDEST PUSH0 PUSH2 0xC35 DUP3 PUSH2 0x923 JUMP JUMPDEST PUSH2 0xC3F DUP2 DUP6 PUSH2 0xC21 JUMP JUMPDEST SWAP4 POP PUSH2 0xC4F DUP2 DUP6 PUSH1 0x20 DUP7 ADD PUSH2 0x93D JUMP JUMPDEST DUP1 DUP5 ADD SWAP2 POP POP SWAP3 SWAP2 POP POP JUMP JUMPDEST PUSH0 PUSH2 0xC66 DUP3 DUP5 PUSH2 0xC2B JUMP JUMPDEST SWAP2 POP DUP2 SWAP1 POP SWAP3 SWAP2 POP POP JUMP JUMPDEST PUSH32 0x4E487B7100000000000000000000000000000000000000000000000000000000 PUSH0 MSTORE PUSH1 0x11 PUSH1 0x4 MSTORE PUSH1 0x24 PUSH0 REVERT JUMPDEST PUSH0 PUSH2 0xCA8 DUP3 PUSH2 0x5AE JUMP JUMPDEST SWAP2 POP PUSH32 0xFFFFFFFFFFFFFFFFFFFFFFFFFFFFFFFFFFFFFFFFFFFFFFFFFFFFFFFFFFFFFFFF DUP3 SUB PUSH2 0xCDA JUMPI PUSH2 0xCD9 PUSH2 0xC71 JUMP JUMPDEST JUMPDEST PUSH1 0x1 DUP3 ADD SWAP1 POP SWAP2 SWAP1 POP JUMP JUMPDEST PUSH32 0x4E487B7100000000000000000000000000000000000000000000000000000000 PUSH0 MSTORE PUSH1 0x22 PUSH1 0x4 MSTORE PUSH1 0x24 PUSH0 REVERT JUMPDEST PUSH0 PUSH1 0x2 DUP3 DIV SWAP1 POP PUSH1 0x1 DUP3 AND DUP1 PUSH2 0xD29 JUMPI PUSH1 0x7F DUP3 AND SWAP2 POP JUMPDEST PUSH1 0x20 DUP3 LT DUP2 SUB PUSH2 0xD3C JUMPI PUSH2 0xD3B PUSH2 0xCE5 JUMP JUMPDEST JUMPDEST POP SWAP2 SWAP1 POP JUMP JUMPDEST PUSH0 DUP2 SWAP1 POP DUP2 PUSH0 MSTORE PUSH1 0x20 PUSH0 KECCAK256 SWAP1 POP SWAP2 SWAP1 POP JUMP JUMPDEST PUSH0 PUSH1 0x20 PUSH1 0x1F DUP4 ADD DIV SWAP1 POP SWAP2 SWAP1 POP JUMP JUMPDEST PUSH0 DUP3 DUP3 SHL SWAP1 POP SWAP3 SWAP2 POP POP JUMP JUMPDEST PUSH0 PUSH1 0x8 DUP4 MUL PUSH2 0xD9E PUSH32 0xFFFFFFFFFFFFFFFFFFFFFFFFFFFFFFFFFFFFFFFFFFFFFFFFFFFFFFFFFFFFFFFF DUP3 PUSH2 0xD63 JUMP JUMPDEST PUSH2 0xDA8 DUP7 DUP4 PUSH2 0xD63 JUMP JUMPDEST SWAP6 POP DUP1 NOT DUP5 AND SWAP4 POP DUP1 DUP7 AND DUP5 OR SWAP3 POP POP POP SWAP4 SWAP3 POP POP POP JUMP JUMPDEST PUSH0 DUP2 SWAP1 POP SWAP2 SWAP1 POP JUMP JUMPDEST PUSH0 PUSH2 0xDE3 PUSH2 0xDDE PUSH2 0xDD9 DUP5 PUSH2 0x5AE JUMP JUMPDEST PUSH2 0xDC0 JUMP JUMPDEST PUSH2 0x5AE JUMP JUMPDEST SWAP1 POP SWAP2 SWAP1 POP JUMP JUMPDEST PUSH0 DUP2 SWAP1 POP SWAP2 SWAP1 POP JUMP JUMPDEST PUSH2 0xDFC DUP4 PUSH2 0xDC9 JUMP JUMPDEST PUSH2 0xE10 PUSH2 0xE08 DUP3 PUSH2 0xDEA JUMP JUMPDEST DUP5 DUP5 SLOAD PUSH2 0xD6F JUMP JUMPDEST DUP3 SSTORE POP POP POP POP JUMP JUMPDEST PUSH0 SWAP1 JUMP JUMPDEST PUSH2 0xE24 PUSH2 0xE18 JUMP JUMPDEST PUSH2 0xE2F DUP2 DUP5 DUP5 PUSH2 0xDF3 JUMP JUMPDEST POP POP POP JUMP JUMPDEST JUMPDEST DUP2 DUP2 LT ISZERO PUSH2 0xE52 JUMPI PUSH2 0xE47 PUSH0 DUP3 PUSH2 0xE1C JUMP JUMPDEST PUSH1 0x1 DUP2 ADD SWAP1 POP PUSH2 0xE35 JUMP JUMPDEST POP POP JUMP JUMPDEST PUSH1 0x1F DUP3 GT ISZERO PUSH2 0xE97 JUMPI PUSH2 0xE68 DUP2 PUSH2 0xD42 JUMP JUMPDEST PUSH2 0xE71 DUP5 PUSH2 0xD54 JUMP JUMPDEST DUP2 ADD PUSH1 0x20 DUP6 LT ISZERO PUSH2 0xE80 JUMPI DUP2 SWAP1 POP JUMPDEST PUSH2 0xE94 PUSH2 0xE8C DUP6 PUSH2 0xD54 JUMP JUMPDEST DUP4 ADD DUP3 PUSH2 0xE34 JUMP JUMPDEST POP POP JUMPDEST POP POP POP JUMP JUMPDEST PUSH0 DUP3 DUP3 SHR SWAP1 POP SWAP3 SWAP2 POP POP JUMP JUMPDEST PUSH0 PUSH2 0xEB7 PUSH0 NOT DUP5 PUSH1 0x8 MUL PUSH2 0xE9C JUMP JUMPDEST NOT DUP1 DUP4 AND SWAP2 POP POP SWAP3 SWAP2 POP POP JUMP JUMPDEST PUSH0 PUSH2 0xECF DUP4 DUP4 PUSH2 0xEA8 JUMP JUMPDEST SWAP2 POP DUP3 PUSH1 0x2 MUL DUP3 OR SWAP1 POP SWAP3 SWAP2 POP POP JUMP JUMPDEST PUSH2 0xEE8 DUP3 PUSH2 0x923 JUMP JUMPDEST PUSH8 0xFFFFFFFFFFFFFFFF DUP2 GT ISZERO PUSH2 0xF01 JUMPI PUSH2 0xF00 PUSH2 0x5F9 JUMP JUMPDEST JUMPDEST PUSH2 0xF0B DUP3 SLOAD PUSH2 0xD12 JUMP JUMPDEST PUSH2 0xF16 DUP3 DUP3 DUP6 PUSH2 0xE56 JUMP JUMPDEST PUSH0 PUSH1 0x20 SWAP1 POP PUSH1 0x1F DUP4 GT PUSH1 0x1 DUP2 EQ PUSH2 0xF47 JUMPI PUSH0 DUP5 ISZERO PUSH2 0xF35 JUMPI DUP3 DUP8 ADD MLOAD SWAP1 POP JUMPDEST PUSH2 0xF3F DUP6 DUP3 PUSH2 0xEC4 JUMP JUMPDEST DUP7 SSTORE POP PUSH2 0xFA6 JUMP JUMPDEST PUSH1 0x1F NOT DUP5 AND PUSH2 0xF55 DUP7 PUSH2 0xD42 JUMP JUMPDEST PUSH0 JUMPDEST DUP3 DUP2 LT ISZERO PUSH2 0xF7C JUMPI DUP5 DUP10 ADD MLOAD DUP3 SSTORE PUSH1 0x1 DUP3 ADD SWAP2 POP PUSH1 0x20 DUP6 ADD SWAP5 POP PUSH1 0x20 DUP2 ADD SWAP1 POP PUSH2 0xF57 JUMP JUMPDEST DUP7 DUP4 LT ISZERO PUSH2 0xF99 JUMPI DUP5 DUP10 ADD MLOAD PUSH2 0xF95 PUSH1 0x1F DUP10 AND DUP3 PUSH2 0xEA8 JUMP JUMPDEST DUP4 SSTORE POP JUMPDEST PUSH1 0x1 PUSH1 0x2 DUP9 MUL ADD DUP9 SSTORE POP POP POP JUMPDEST POP POP POP POP POP POP JUMP JUMPDEST PUSH32 0x4E487B7100000000000000000000000000000000000000000000000000000000 PUSH0 MSTORE PUSH1 0x32 PUSH1 0x4 MSTORE PUSH1 0x24 PUSH0 REVERT JUMPDEST PUSH0 DUP2 SLOAD PUSH2 0xFE7 DUP2 PUSH2 0xD12 JUMP JUMPDEST PUSH2 0xFF1 DUP2 DUP7 PUSH2 0xC21 JUMP JUMPDEST SWAP5 POP PUSH1 0x1 DUP3 AND PUSH0 DUP2 EQ PUSH2 0x100B JUMPI PUSH1 0x1 DUP2 EQ PUSH2 0x1020 JUMPI PUSH2 0x1052 JUMP JUMPDEST PUSH1 0xFF NOT DUP4 AND DUP7 MSTORE DUP2 ISZERO ISZERO DUP3 MUL DUP7 ADD SWAP4 POP PUSH2 0x1052 JUMP JUMPDEST PUSH2 0x1029 DUP6 PUSH2 0xD42 JUMP JUMPDEST PUSH0 JUMPDEST DUP4 DUP2 LT ISZERO PUSH2 0x104A JUMPI DUP2 SLOAD DUP2 DUP10 ADD MSTORE PUSH1 0x1 DUP3 ADD SWAP2 POP PUSH1 0x20 DUP2 ADD SWAP1 POP PUSH2 0x102B JUMP JUMPDEST DUP4 DUP9 ADD SWAP6 POP POP POP JUMPDEST POP POP POP SWAP3 SWAP2 POP POP JUMP JUMPDEST PUSH0 PUSH2 0x1066 DUP3 DUP5 PUSH2 0xFDB JUMP JUMPDEST SWAP2 POP DUP2 SWAP1 POP SWAP3 SWAP2 POP POP JUMP INVALID LOG2 PUSH5 0x6970667358 0x22 SLT KECCAK256 SWAP16 LOG3 0xFB 0xDF DUP13 SWAP6 SWAP9 SWAP8 MSIZE 0xDC 0xED 0xBA 0x2D REVERT BALANCE MULMOD TIMESTAMP PUSH15 0xE60F9C515A6F15997683757F7A2964 PUSH20 0x6F6C634300081A00330000000000000000000000 "
				},
				"gasEstimates": {
					"creation": {
						"codeDepositCost": "852600",
						"executionCost": "888",
						"totalCost": "853488"
					},
					"external": {
						"createPoll(string,string[])": "infinite",
						"getResults(uint256)": "infinite",
						"pollCount()": "2469",
						"polls(uint256)": "infinite",
						"vote(uint256,string)": "infinite"
					}
				},
				"methodIdentifiers": {
					"createPoll(string,string[])": "7e3d71c3",
					"getResults(uint256)": "81a60c0d",
					"pollCount()": "9207891d",
					"polls(uint256)": "ac2f0074",
					"vote(uint256,string)": "24108475"
				}
			},
			"storageLayout": {
				"storage": [
					{
						"astId": 18,
						"contract": "PLDG Sample Problem - Voting Smart Contract.sol:Voting",
						"label": "polls",
						"offset": 0,
						"slot": "0",
						"type": "t_mapping(t_uint256,t_struct(Poll)13_storage)"
					},
					{
						"astId": 20,
						"contract": "PLDG Sample Problem - Voting Smart Contract.sol:Voting",
						"label": "pollCount",
						"offset": 0,
						"slot": "1",
						"type": "t_uint256"
					}
				],
				"types": {
					"t_array(t_string_storage)dyn_storage": {
						"base": "t_string_storage",
						"encoding": "dynamic_array",
						"label": "string[]",
						"numberOfBytes": "32"
					},
					"t_bool": {
						"encoding": "inplace",
						"label": "bool",
						"numberOfBytes": "1"
					},
					"t_mapping(t_string_memory_ptr,t_uint256)": {
						"encoding": "mapping",
						"key": "t_string_memory_ptr",
						"label": "mapping(string => uint256)",
						"numberOfBytes": "32",
						"value": "t_uint256"
					},
					"t_mapping(t_uint256,t_struct(Poll)13_storage)": {
						"encoding": "mapping",
						"key": "t_uint256",
						"label": "mapping(uint256 => struct Voting.Poll)",
						"numberOfBytes": "32",
						"value": "t_struct(Poll)13_storage"
					},
					"t_string_memory_ptr": {
						"encoding": "bytes",
						"label": "string",
						"numberOfBytes": "32"
					},
					"t_string_storage": {
						"encoding": "bytes",
						"label": "string",
						"numberOfBytes": "32"
					},
					"t_struct(Poll)13_storage": {
						"encoding": "inplace",
						"label": "struct Voting.Poll",
						"members": [
							{
								"astId": 3,
								"contract": "PLDG Sample Problem - Voting Smart Contract.sol:Voting",
								"label": "title",
								"offset": 0,
								"slot": "0",
								"type": "t_string_storage"
							},
							{
								"astId": 6,
								"contract": "PLDG Sample Problem - Voting Smart Contract.sol:Voting",
								"label": "options",
								"offset": 0,
								"slot": "1",
								"type": "t_array(t_string_storage)dyn_storage"
							},
							{
								"astId": 10,
								"contract": "PLDG Sample Problem - Voting Smart Contract.sol:Voting",
								"label": "votes",
								"offset": 0,
								"slot": "2",
								"type": "t_mapping(t_string_memory_ptr,t_uint256)"
							},
							{
								"astId": 12,
								"contract": "PLDG Sample Problem - Voting Smart Contract.sol:Voting",
								"label": "isActive",
								"offset": 0,
								"slot": "3",
								"type": "t_bool"
							}
						],
						"numberOfBytes": "128"
					},
					"t_uint256": {
						"encoding": "inplace",
						"label": "uint256",
						"numberOfBytes": "32"
					}
				}
			},
			"userdoc": {
				"kind": "user",
				"methods": {},
				"version": 1
			}
		}
	}
}